:020000040800F2
:1000000000800120E9F20208110C0008130C00081E
:10001000150C0008170C0008190C0008000000005F
:100020000000000000000000000000001B0C0008A1
:100030001D0C0008000000001F0C0008210C000827
:1000400039F3020839F3020839F3020839F30208D8
:1000500039F3020839F3020839F3020839F30208C8
:1000600039F3020839F3020839F3020839F30208B8
:1000700039F3020839F3020839F3020839F30208A8
:1000800039F3020839F3020839F3020839F3020898
:1000900039F3020839F3020839F3020839F3020888
:1000A00039F3020839F3020839F3020839F3020878
:1000B00039F30208B536000839F3020839F30208AB
:1000C00039F3020839F3020839F3020839F3020858
:1000D00039F3020839F3020839F3020839F3020848
:1000E00039F3020839F3020839F3020839F3020838
:1000F00039F3020839F3020839F3020839F3020828
:1001000039F3020839F3020839F3020839F3020817
:1001100039F3020839F3020839F3020839F3020807
:1001200039F3020839F3020839F3020839F30208F7
:1001300039F3020839F3020839F3020839F30208E7
:1001400039F3020839F3020839F3020839F30208D7
:1001500039F30208290C000839F3020839F30208C0
:1001600039F3020839F3020839F3020839F30208B7
:1001700039F3020839F30208000000000000000013
:0801800039F3020839F302080B
:1001C00010B5054C237833B9044B13B10448AFF391
:1001D00000800123237010BDE00400200000000017
:1001E000C4F5020808B5034B1BB103490348AFF33C
:1001F000008008BD00000000E4040020C4F50208EF
:1002000053B94AB9002908BF00281CBF4FF0FF317D
:100210004FF0FF3000F074B9ADF1080C6DE904CE79
:1002200000F006F8DDF804E0DDE9022304B07047D1
:100230002DE9F047089E0D4604468846002B4DD117
:100240008A42944668D9B2FA82F252B101FA02F3B4
:10025000C2F1200120FA01F10CFA02FC41EA030884
:1002600094404FEA1C45210CB8FBF5FE1FFA8CF7B1
:1002700005FB1E8341EA03430EFB07F199420BD9AC
:100280001CEB03030EF1FF3080F01E81994240F217
:100290001B81AEF1020E63445B1AA4B2B3FBF5F00E
:1002A00005FB103344EA034400FB07F7A7420AD9D1
:1002B0001CEB040400F1FF3380F00881A74240F2F8
:1002C000058164440238E41B40EA0E4000211EB15F
:1002D000D4400023C6E90043BDE8F0878B4208D92B
:1002E000002E00F0EE800021C6E900050846BDE8BA
:1002F000F087B3FA83F100294AD1AB4202D382429C
:1003000000F2F980841A65EB030301209846002E61
:10031000E2D0C6E90048DFE702B9FFDEB2FA82F2B6
:10032000002A40F09180A1EB0C054FEA1C471FFA10
:100330008CFE0121B5FBF7F307FB1350250C45EAB2
:1003400000450EFB03F0A84208D91CEB050503F19C
:10035000FF3802D2A84200F2CB8043462D1AA4B245
:10036000B5FBF7F007FB105544EA05440EFB00FE11
:10037000A64508D91CEB040400F1FF3502D2A645BE
:1003800000F2BB802846A4EB0E0440EA03409EE73F
:10039000C1F120078B4022FA07FC4CEA030C20FA3B
:1003A00007F405FA01F31C43FD404FEA1C4900FA2B
:1003B00001F3B5FBF9F8200C1FFA8CFE09FB185568
:1003C00040EA054508FB0EF0A84202FA01F20BD9FB
:1003D0001CEB050508F1FF3A80F08880A84240F246
:1003E0008580A8F1020865442D1AA4B2B5FBF9F086
:1003F00009FB105544EA054500FB0EFEAE4508D941
:100400001CEB050500F1FF346CD2AE456AD9023809
:10041000654440EA0840A0FB0294A5EB0E05A54206
:10042000C846A64656D353D05EB1B3EB080265EB7F
:100430000E0505FA07F722FA01F3CD401F43C6E97E
:1004400000750021BDE8F087C2F1200320FA03F116
:100450000CFA02FC25FA03F395400D434FEA1C47C2
:100460001FFA8CFEB3FBF7F107FB11302B0C43EAAC
:10047000004301FB0EF0984204FA02F408D91CEB89
:10048000030301F1FF382FD298422DD9023963447A
:100490001B1AADB2B3FBF7F007FB103345EA034577
:1004A00000FB0EF3AB4208D91CEB050500F1FF3849
:1004B00016D2AB4214D902386544ED1A40EA014124
:1004C00038E73146304607E78646E5E61846FAE65D
:1004D0004B45A9D2B9EB020864EB0C0E0138A3E737
:1004E0004046EAE7204694E74146D1E7D0467BE71D
:1004F000023B654432E7084609E76444023842E7B4
:10050000704700BF00000000000000000000000075
:1005100000000000000000000000000000000000DB
:10052000A2EB0300704700BF02780B78012A28BFB6
:100530009A42F5D16DE9044540EA0104CDE902672C
:100540006FF0000C4FEA447212B380EA010414F019
:10055000070F6AD100F0070420F0070004F003053C
:1005600021F007014FEAC505F0E8042314F0040F59
:10057000F1E804670CFA05F462EA040266EA04068C
:100580000AD063EA0403624667EA0407664603E0AA
:10059000F0E80423F1E8046782FA4CF582EA0604E5
:1005A000A4FA8CF46CBB83FA4CF583EA0705A5FA30
:1005B0008CF595B950E9022351E9026782FA4CF5AE
:1005C00082EA0604A4FA8CF483FA4CF583EA070560
:1005D000A5FA8CF52543DBD09CB92DBAB5FA85F484
:1005E00024F0070427FA04F1DDE9026723FA04F393
:1005F00003F0FF0001F0FF01FDE80445A0EB01005E
:10060000704724BAB4FA84F424F0070426FA04F1FB
:10061000DDE9026722FA04F202F0FF0001F0FF01B7
:10062000FDE80445A0EB0100704714F0030F3CD136
:1006300010F0030428D150F8082B51F8083B82FA37
:100640004CF582EA0305A5FA8CF55DB950F8042C47
:1006500051F8043C82FA4CF582EA0305A5FA8CF5C0
:10066000002DE8D02DBAB5FA85F424F0070423FA5A
:1006700004F122FA04F202F0FF0001F0FF01FDE8AC
:100680000445A0EB010070474FEAC40420F00300CA
:1006900050F8082B21F0030151F8083B0CFA04F440
:1006A00062EA040263EA0403C9E710F003041AD003
:1006B000A1EB040120F00300E40750F8042B06D05E
:1006C0000FD28B785FFAA2F4E41A06D12BB1CB7863
:1006D0005FFAB2F4E41A00D11BB920465DF8104B62
:1006E000704701F1040150F8042BCC0721F00301FD
:1006F00051F8043B48D824D222F07F4482FA4CF5CA
:1007000094EA1325A5FA8CF50AD165B951F8043B92
:1007100084EA0204B4EB036F0ED150F8042BEBE72C
:100720004FEA132355E035F07F454DD10878FDE8B9
:100730000445C0F1000070474FEA126203F0FF0366
:1007400047E002EA1C4482FA4CF594EA1345A5FA04
:100750008CF50AD165B951F8043B84EA0204B4EB84
:10076000034F0CD150F8042BEBE74FEA134330E072
:1007700015EA1C4528D10B884FEA124229E04FEABE
:10078000124203EA1C4324E002F0FF0482FA4CF513
:1007900094EA1365A5FA8CF50AD165B951F8043BC2
:1007A00084EA0204B4EB032F09D150F8042BEBE7E1
:1007B0004FEA13630DE015F0FF0F05D10B684FEA08
:1007C000122223F07F4304E04FF00000FDE80445CF
:1007D000704712BA1BBA82FA4CF482EA0304A4FAF4
:1007E0008CF5B5FA85F402FA04F203FA04F34FEA41
:1007F0001260FDE80445A0EB1360704700000000A4
:1008000090F800F06DE9024520F007016FF0000C50
:1008100010F0070491F820F040F049804FF00004F8
:100820006FF00700D1E9002391F840F000F10800D3
:1008300082FA4CF2A4FA8CF283FA4CF3A2FA8CF30B
:100840004BBBD1E9022382FA4CF200F10800A4FA72
:100850008CF283FA4CF3A2FA8CF3E3B9D1E90423C6
:1008600082FA4CF200F10800A4FA8CF283FA4CF3FD
:10087000A2FA8CF37BB9D1E9062301F1200182FAB7
:100880004CF200F10800A4FA8CF283FA4CF3A2FABD
:100890008CF3002BC6D0002A04BF04301A4612BACB
:1008A000B2FA82F2FDE8024500EBD2007047D1E9CE
:1008B000002304F00305C4F100004FEAC50514F05D
:1008C000040F91F840F00CFA05F562EA05021CBF2E
:1008D00063EA050362464FF00004A9E784B00F4BBA
:1008E000DA6C42F08002DA64DA6C02F08002019283
:1008F000019ADA6C42F00102DA64DA6C02F0010269
:100900000292029ADA6C42F00402DA64DB6C03F0C1
:1009100004030393039B04B0704700BF0010024020
:1009200008B505F091FF02F0F9FE02F043FF2EF04A
:10093000A1FC08BD72B6FEE708B51048104B036075
:100940004FF482734360002383604FF4E062C2601F
:1009500002220261012242614FF400728261C3618E
:100960000362436283620722C2620363436301F04E
:10097000D8FD00B908BDFFF7DDFF00BF440500202A
:10098000003C004000B583B0194B9A6C42F0020263
:100990009A649B6C03F002030193019B1548164B6C
:1009A0000360002343604FF4804282604022C260B3
:1009B000802202614FF4807242614FF48062826152
:1009C000C361036200F004FA78B9002201214520D6
:1009D00000F0A4F9452000F0D9F9084A00210548A3
:1009E00000F0DCFA03B05DF804FBFFF7A3FF00BFE3
:1009F00000100240FC04002080040240513700082F
:100A000000B589B0002304930593069307930193DF
:100A1000029303931248134A0260436083604FF6C7
:100A2000FF72C2600361836102F094F890B94FF4E1
:100A30008053049304A90A4802F0C8F860B900235F
:100A40000193039301A9064802F040F930B909B0B7
:100A50005DF804FBFFF76EFFFFF76CFFFFF76AFF1F
:100A6000A80500200004004008B50A480A4B0360AE
:100A70004FF4E133436000238360C36003610C22C1
:100A800042618361C361036202F07CFA00B908BD70
:100A9000FFF750FFF40500200038014000B597B083
:100AA0004422002105A82EF06DFC00230093019341
:100AB0000293039304934FF4007000F0AFFB20BB4C
:100AC000012205924FF48033069302230F930321F2
:100AD0001091119228221292072213921493042348
:100AE000159305A800F084FC88B90F230093032315
:100AF000019300230293039304930421684600F0BA
:100B000085FF30B917B05DF804FBFFF713FFFFF75F
:100B100011FFFFF70FFF08B500F0B8F8FFF7BEFFB1
:100B2000FFF7DCFEFFF708FFFFF72CFFFFF768FF7A
:100B3000FFF79AFF41F63F7141F2873002F086FDE0
:100B400005F082FE02F0EAFD2EF094FBFFF7E8FECE
:100B50001AF016FEFCE7000082B00A4B1A6E42F053
:100B600001021A661A6E02F001020092009A9A6D52
:100B700042F080529A659B6D03F080530193019B74
:100B800002B070470010024010B5AAB00446002120
:100B900025912691279128912991882203A82EF04A
:100BA000F1FB2268184B9A4201D02AB010BD0123F4
:100BB000039303A801F076F918BB144B1A6E42F4A4
:100BC00080421A661A6E02F480420192019ADA6C2F
:100BD00042F00102DA64DB6C03F001030293029B32
:100BE0004FF4E063259302232693002327930323E6
:100BF00028930723299325A94FF0904000F0F4F99A
:100C0000D3E7FFF797FED8E7003801400010024015
:100C1000FEE7FEE7FEE7FEE7FEE770477047704736
:100C200008B500F043F808BD08B5024800F054F9D3
:100C300008BD00BFFC04002070470000104B1B786B
:100C40000BB90120704710B504464FF47A70B0FB21
:100C5000F3F30C4A1068B0FBF3F000F0A5F868B9A4
:100C60000F2C01D901200AE0002221464FF0FF306D
:100C700000F054F8044B1C60002000E0012010BD7F
:100C800004000020000000200800002010B5032010
:100C900000F032F80F20FFF7D1FF10B101242046F9
:100CA00010BD0446FFF758FFF9E70000034B1B781F
:100CB000034A11680B441360704700BF0400002012
:100CC00044060020014B1868704700BF440600200E
:100CD00038B50446FFF7F6FF0546B4F1FF3F02D0F2
:100CE000044B1B781C44FFF7EDFF401BA042FAD3D6
:100CF00038BD00BF04000020074AD36823F4E06336
:100D00001B041B0C000200F4E060034343F0BF63CC
:100D100043F40033D360704700ED00E000B5194B99
:100D2000DB68C3F30223C3F1070CBCF1040F28BF37
:100D30004FF0040C03F1040EBEF1060F18D9033B6B
:100D40004FF0FF3E0EFA0CFC21EA0C0199400EFA1E
:100D500003F322EA0303194300280BDB0901C9B29C
:100D600000F1604000F5614080F800135DF804FB7D
:100D70000023E5E700F00F000901C9B2024B195446
:100D8000F4E700BF00ED00E014ED00E0002807DB11
:100D900000F01F02400901239340024A42F820302C
:100DA000704700BF00E100E00138B0F1807F0BD256
:100DB0004FF0E0235861054AF02182F8231000200B
:100DC000986107221A6170470120704700ED00E02A
:100DD000002872D010B403460068394A904249D8BE
:100DE000384A02443849A1FB0212120992005A649F
:100DF000364A1A64022283F82520016821F4FF4153
:100E000021F070019A68DC6822431C6922435C6906
:100E100022439C692243DC6922431C6A22430A4321
:100E200002609A68B2F5804F1BD0196C274A914234
:100E30002BD0264AD2F8A814586C00F01C0C0F20B6
:100E400000FA0CF021EA0001C2F8A814D2F8A814A4
:100E500058685C6C04F01C0C00FA0CF00143C2F8FA
:100E6000A8140020D863012283F8252083F82400E9
:100E700010BC7047164A02441349A1FB0212120922
:100E800092005A64134A1A64B4E7D2F8A810586C56
:100E900000F01C0C0F2000FA0CF021EA0001C2F84F
:100EA000A810D2F8A81058685C6C04F01C0C00FA6A
:100EB0000CF00143C2F8A810D3E70120704700BF2F
:100EC00007040240F8FFFDBFCDCCCCCC00000240AF
:100ED000F8FBFDBF0004024038B5036C19680468D4
:100EE0002568436C03F01C0304229A400A4215D083
:100EF00015F0040F12D0236813F0200F03D12368DC
:100F000023F004032360436C03F01C02016C0423F0
:100F100093404B60036B03B1984738BD02229A405F
:100F20000A421CD015F0020F19D0236813F0200FCD
:100F300006D1236823F00A032360012380F82530BB
:100F4000436C03F01C02016C022393404B600023AE
:100F500080F82430C36A002BDFD09847DDE70822F1
:100F600002FA03F30B42D8D015F0080FD5D023684E
:100F700023F00E032360436C03F01C03016C012279
:100F800002FA03F34B60C26380F82520002380F847
:100F90002430436B002BC0D09847BEE7034690F83F
:100FA000240001281ED0012083F8240093F8250096
:100FB000C0B2012804D00120002283F82420704709
:100FC0000329F9D8DFE801F00205080BDA620846C8
:100FD000F2E71A630020EFE75A630020ECE79A6318
:100FE0000020E9E70220704770B582B000236EE070
:100FF00085685E000324B44025EA0405CC68B4404B
:101000002C438460456825EA0C054C68C4F3001441
:101010009C402C4344606DE0C56A25EA0C0CC4F387
:10102000C0049C4044EA0C04C46269E0DD08083551
:1010300050F8256003F007044FEA840C0F2404FAEB
:101040000CF426EA040E0C6904FA0CF444EA0E04CB
:1010500040F825406CE0062400E0002404FA0EF479
:101060002C430CF1020C5F4D45F82C405E4CA568FA
:10107000D44325EA0206D1F804C01CF4801F01D035
:1010800042EA0506584DAE60ED6804EA0506D1F85F
:1010900004C01CF4001F01D042EA0506524DEE6068
:1010A0006D6804EA0506D1F804C01CF4003F01D0C5
:1010B00042EA05064C4D6E602D682C404E6816F4D1
:1010C000803F01D042EA0504474A146001330A68B0
:1010D00032FA03F400F083804FF0010C0CFA03FCA9
:1010E0001CEA0202F2D04C6804F00304013C012C1B
:1010F0007FF67EAF4C6804F0030EBEF1030F8BD079
:101100004C6804F00304032C0CD0C4685D004FF05D
:10111000030C0CFA05FC24EA0C0C8C68AC4044EA85
:101120000C04C4604C6804F00304022C3FF47EAF4E
:1011300004684FEA430E4FF0030C0CFA0EFC24EA4D
:101140000C0C4C6804F0030404FA0EF444EA0C049A
:1011500004604C6814F4403FB8D0244C256E45F030
:1011600001052566246E04F001040194019C4FEAF8
:10117000930C0CF102051B4C54F8255003F00304AA
:101180004FEA840E0F2404FA0EF425EA0405B0F1A8
:10119000904F3FF462AF164CA04216D004F5806425
:1011A000A04214D004F58064A04212D004F58064FB
:1011B000A04210D004F58064A0420ED004F58064F3
:1011C000A0423FF448AF072448E7012446E7022441
:1011D00044E7032442E7042440E705243EE702B045
:1011E00070BD00BF0000014000040140001002403B
:1011F000000400480369194201D001207047002013
:1012000070470AB18161704781627047024B18686C
:1012100000F4C060704700BF00700040B0F5007F70
:101220000FD01F4B1B6803F4C063B3F5806F34D03D
:101230001B4A136823F4C06343F4806313600020E7
:101240007047174B1B6803F4C063B3F5007F20D0D1
:10125000134A136823F4C06343F400731360114B03
:101260001B68322202FB03F30F4AA2FB03239B0CF1
:10127000013300E0013B0A4A526912F4806F01D049
:10128000002BF7D1064B5B6913F4806F03D100206C
:10129000704700207047032070470020704700BF50
:1012A000007000400000002083DE1B4330B583B097
:1012B0000446204B9B6D13F0805F0BD0FFF7A6FF19
:1012C000B0F5007F17D0802C1FD82DD0702C2DD0DA
:1012D00000211BE0174DAB6D43F08053AB65AB6D48
:1012E00003F080530193019BFFF790FFAB6D23F058
:1012F0008053AB65E4E7802C03D9A02C03D90221ED
:1013000004E0002102E0012100E003210A4A136801
:1013100023F007030B431360136803F007038B42AA
:1013200006D1002003B030BD0221EFE70121EDE737
:101330000120F7E70010024000200240284A93688D
:10134000D26802F0030213F00C030AD00C2B06D073
:10135000042B1FD0082B20D00020024610E0012AC9
:10136000F6D11F4A126812F0080F0CD11C4AD2F8AD
:101370009420C2F303221B4951F8222043B10020DC
:101380000C2B0DD07047164A1268C2F30312F2E715
:101390001046F5E714480022F2E714480022EFE770
:1013A0000F4BDB6803F00303022B16D0032B00D195
:1013B0000E4A0B49C868C0F30210431CC868C0F34A
:1013C000062002FB00F0B0FBF3F0CB68C3F34163EF
:1013D00001335B00B0FBF3F0D4E7034AE9E700BF59
:1013E0000010024000F602080024F40000127A0007
:1013F000002800F0F182F0B583B00446964B9D685A
:1014000005F00C05DE6806F00306036813F0100F04
:101410005AD0E5B10C2D18D0A369002B00F0BB8089
:101420008D4A136843F001031360FFF74BFC074636
:10143000894B1B6813F0020F40F09A80FFF742FCC3
:10144000C01B0228F4D90320D1E2012EE4D1824B43
:101450001B6813F0020F03D0A369002B00F0BE82BB
:10146000206A7D4B1B6813F0080F5BD07A4B1B681A
:1014700003F0F00398425CD8774B1A6842F00802F8
:101480001A601A6822F0F002216A0A431A605A6848
:1014900022F47F42E16942EA01225A60002D60D0C5
:1014A000FFF74CFF6C4B9B68C3F303136B4AD35C91
:1014B00003F01F03D8406A4B18606A4B1868FFF7A7
:1014C000BDFB002840F09382236813F0010F00F069
:1014D0008180082D75D00C2D71D06368B3F5803FE5
:1014E00000F09780B3F5A02F00F099805A4B1A684E
:1014F00022F480321A601A6822F480221A6063682B
:10150000002B00F09980FFF7DDFB0746524B1B686C
:1015100013F4003F5ED1FFF7D5FBC01B6428F5D95B
:10152000032064E24C4BD3F894301B0903F0F00322
:10153000A0E7FFF7BBFE002840F05282464B1A6836
:1015400042F008021A601A6822F0F002216A0A4387
:101550001A605A6822F47F42E16942EA01225A6025
:101560009EE7206AFFF7A2FE002899D001203EE204
:10157000394B1A6842F008021A601A6822F0F00229
:10158000216A0A431A605A6822F47F42E16942EAFA
:1015900001225A6098E7304A136823F00103136070
:1015A000FFF790FB07462C4B1B6813F0020F8BD004
:1015B000FFF788FBC01B0228F5D9032017E2032E92
:1015C0008BD1254B1B6813F4003F03D06368002BBD
:1015D00000F00882236813F0020F58D0042D45D084
:1015E0000C2D41D0E368002B77D01B4A136843F4DD
:1015F00080731360FFF766FB0646174B1B6813F4F6
:10160000806F61D1FFF75EFB801B0228F5D90320B4
:10161000EDE1114A136843F4803313606FE703F17F
:101620008043A3F53C331A6842F480221A601A689A
:1016300042F480321A6062E7FFF744FB0746064B2C
:101640001B6813F4003FC5D0FFF73CFBC01B6428A8
:10165000F5D90320CBE100BF00100240E8F50208F5
:101660000000002008000020022EBBD1A34B1B6805
:1016700013F4806F03D0E368002B00F0B5819F4A1C
:10168000536823F0F853216943EA016353602368E8
:1016900013F0080F4CD063699BB3984AD2F894308A
:1016A00043F00103C2F89430FFF70CFB0646934B5E
:1016B000D3F8943013F0020F3AD1FFF703FB801BED
:1016C0000228F4D9032092E18C4A536823F0F8539E
:1016D000216943EA01635360D9E7884A136823F418
:1016E00080731360FFF7EEFA0646844B1B6813F411
:1016F000806FCCD0FFF7E6FA801B0228F5D90320D3
:1017000075E17E4AD2F8943023F00103C2F8943098
:10171000FFF7D8FA0646794BD3F8943013F0020F4E
:1017200006D0FFF7CFFA801B0228F4D903205EE130
:10173000236813F0040F7AD0704B9B6D13F0805F19
:1017400036D16E4B9A6D42F080529A659B6D03F0D4
:1017500080530193019B0126694B1B6813F4807F22
:1017600028D0A368012B39D0052B3FD0634BD3F889
:10177000902022F00102C3F89020D3F8902022F0AC
:101780000402C3F89020A368002B3DD0FFF79AFA1B
:1017900007465A4BD3F8903013F0020F46D1FFF7AB
:1017A00091FAC01B41F288339842F2D903201EE11E
:1017B0000026D1E7524A136843F480731360FFF7A1
:1017C00081FA07464E4B1B6813F4807FC9D1FFF79F
:1017D00079FAC01B0228F5D9032008E1474AD2F85C
:1017E000903043F00103C2F89030CCE7434BD3F87C
:1017F000902042F00402C3F89020D3F8902042F0E9
:101800000102C3F89020BEE7FFF75CFA07463B4BA6
:10181000D3F8903013F0020F08D0FFF753FAC01B33
:1018200041F288339842F2D90320E0E0EEB9A36A8E
:10183000002B00F0DB80022B1DD00C2D00F0DD8092
:101840002E4A136823F080731360FFF73BFA0446B7
:101850002A4B1B6813F0007F00F0B780FFF732FAC5
:10186000001B0228F4D90320C1E0244A936D23F021
:1018700080539365DBE7214BDB6803F00301E26AE9
:1018800091420FD00C2D00F0B4801C4B1B6813F05C
:10189000806F40F0B080194B1B6813F0805F31D02F
:1018A0000120A4E003F07002216B0139B2EB011FAB
:1018B000E8D103F4FE42616BB2EB012FE2D103F4F5
:1018C0000031A26B073A18BF01229142DAD103F42A
:1018D000C001E26B5208013AB1EB425FD2D103F092
:1018E000C063226C5208013AB3EB426FCAD1034B7A
:1018F0001B6813F0007F4ED0002078E000100240FB
:10190000007000403E4A136823F080731360FFF7B5
:10191000D9F905463A4B1B6813F0007F06D0FFF754
:10192000D1F9401B0228F5D9032060E0344AD3687E
:1019300034491940E36A206B013843EA0013606BB5
:1019400043EA0023E06B4008013843EA4053206C2F
:101950004008013843EA4063A06B000943EA404372
:101960000B43D360136843F080731360D36843F074
:101970008073D360FFF7A6F90446214B1B6813F070
:10198000007F06D1FFF79EF9001B0228F5D903203E
:101990002DE000202BE01A4B1A6842F080721A608A
:1019A000DA6842F08072DA60FFF78CF90446144B73
:1019B0001B6813F0007F06D1FFF784F9031B022B8D
:1019C000F5D9032013E0002011E00D4AD1680E4B39
:1019D0000B40D36000200AE001207047012006E0A0
:1019E000012004E0012002E0012000E0002003B01B
:1019F000F0BD0120FBE70120F9E70120F7E700BF78
:101A0000001002408C809DF9FCFFEEFE002800F0E3
:101A1000AF8070B50D460446594B1B6803F00703B1
:101A20008B420BD2564A136823F007030B43136013
:101A3000136803F007038B4240F09C80236813F087
:101A4000020F0CD0A2684F4B9B6803F0F0039A4240
:101A500005D94C498B6823F0F0031A438A60236848
:101A600013F0010F39D06368032B09D0022B26D065
:101A700063BB444A126812F0020F06D1012076E0DF
:101A8000404A126812F0007F76D03E498A6822F000
:101A9000030213438B60FFF715F90646394B9B6829
:101AA00003F00C036268B3EB820F16D0FFF70AF95C
:101AB000801B41F288339842F0D9032057E0314A25
:101AC000126812F4003FE0D1012050E02D4A126864
:101AD00012F4806FD9D1012049E0236813F0020F7E
:101AE0000CD0A268274B9B6803F0F0039A4205D202
:101AF00024498B6823F0F0031A438A60204B1B684B
:101B000003F00703AB420AD91D4A136823F0070309
:101B10002B431360136803F00703AB422ED12368F5
:101B200013F0040F06D0174A936823F4E063E168CA
:101B30000B439360236813F0080F07D0114A936892
:101B400023F46053216943EAC1039360FFF7F6FB76
:101B50000C4B9B68C3F303130B4AD35C03F01F03C6
:101B6000D8400A4B18600A4B1868FFF767F870BD39
:101B7000012070470120FAE70120F8E70120F6E78D
:101B80000020024000100240E8F50208000000209A
:101B900008000020014B1868704700BF00000020BB
:101BA00008B5FFF7F7FF054B9B68C3F30223044A10
:101BB000D35C03F01F03D84008BD00BF00100240F3
:101BC000F8F5020808B5FFF7E5FF054B9B68C3F37E
:101BD000C223044AD35C03F01F03D84008BD00BFF2
:101BE00000100240F8F50208F8B504460F46594BBC
:101BF000DB6813F0030F18D0564BDB6803F00303C8
:101C00000268934202D001252846F8BD002A00F060
:101C10009E80504BDB68C3F302130133426893424A
:101C200001D00125F0E7002509E00368022B57D019
:101C3000032B5CD0012B42D00125002DE4D1454A75
:101C4000136823F080631360FFF73CF80646414BAE
:101C50001B6813F0006F05D0FFF734F8831B022BCD
:101C6000F5D90325002DCFD1002F4ED139490B696D
:101C700023F41F3323F44073A068E268120952046E
:101C800042EA002213430B61324A136843F0806337
:101C90001360FFF717F806462E4B1B6813F0006F12
:101CA00005D1FFF70FF8831B022BF5D90325002D73
:101CB000AAD1284A1369A1690B431361A4E7254AF5
:101CC000126812F0020F1ED02248C26822F073027E
:101CD0006168013943EA01131343C3600025ACE78F
:101CE0001C4A126812F4806FEED10125A5E7194A4B
:101CF000126812F4003FE7D1164A126812F4802FDE
:101D0000E2D1012599E7012597E7012F0FD011486E
:101D1000026922F0C06222F4FE42A16863695B0896
:101D2000013B5B0643EA012313430361ACE7094827
:101D3000026922F4C00222F4FE42A16823695B0812
:101D4000013B5B0543EA0123134303619CE7012543
:101D50005AE700BF00100240F8B504460F46504B4A
:101D6000DB6813F0030F18D04D4BDB6803F003035F
:101D70000268934202D001252846F8BD002A00F0EF
:101D80008C80474BDB68C3F30213013342689342F4
:101D900001D00125F0E7002509E00368022B57D0A8
:101DA000032B5CD0012B42D00125002DE4D13C4A0D
:101DB000136823F080531360FEF784FF0646384B08
:101DC0001B6813F0005F05D0FEF77CFF831B022B1E
:101DD000F5D90325002DCFD1002F4ED130494B69C5
:101DE00023F41F3323F44073A068E26812095204FD
:101DF00042EA002213434B61294A136843F080539F
:101E00001360FEF75FFF0646254B1B6813F0005F6B
:101E100005D1FEF757FF831B022BF5D90325002DB3
:101E2000AAD11F4A536961690B435361A4E71C4A55
:101E3000126812F0020F1ED01948C26822F0730215
:101E40006168013943EA01131343C3600025ACE71D
:101E5000134A126812F4806FEED10125A5E7104AEB
:101E6000126812F4003FE7D10D4A126812F4802F75
:101E7000E2D1012599E7012597E70948426922F057
:101E8000C06222F4FE42A16823695B08013B5B0645
:101E900043EA012313434361AEE701256CE700BF2A
:101EA000001002402DE9F04182B00446036813F4AB
:101EB000006F33D0436EB3F5000F1FD00CD823B39F
:101EC000B3F5800F05D100212030FFF745FF06460E
:101ED00020E001273E4623E0B3F5400F0BD100265A
:101EE000604AD2F8883023F44003616E0B43C2F895
:101EF0008830002714E001273E4611E0594AD36894
:101F000043F48033D3600026EAE700210430FFF772
:101F10006BFE0646002EE3D0374601E000273E4622
:101F2000236813F4805F30D0A36EB3F1007F1FD01D
:101F30000DD81BB3B3F1807F06D1002104F120003E
:101F4000FFF70AFF064605E001273E461DE0B3F114
:101F5000407F0AD1C6B9434AD2F8883023F0407393
:101F6000A16E0B43C2F888300FE001273E460CE01B
:101F70003C4AD36843F48033D360EBE70021201D53
:101F8000FFF732FE0646E5E73746236813F4003FC5
:101F900071D0344B9B6D13F0805F4ED1314B9A6DF5
:101FA00042F080529A659B6D03F080530193019B30
:101FB0004FF001082C4A136843F480731360FEF756
:101FC00081FE0546284B1B6813F4807F05D1FEF780
:101FD00079FE401B0228F5D90326002E46D1214B5D
:101FE000D3F8903013F4407316D0D4F884209A427A
:101FF00012D01C4AD2F8903023F44073D2F89010DB
:1020000041F48031C2F89010D2F8901021F4803160
:10201000C2F89010C2F8903013F0010F10D1002ECA
:1020200040F027810F4AD2F8903023F44073D4F85F
:1020300084100B43C2F8903019E04FF00008B9E764
:10204000FEF740FE0546074BD3F8903013F0020F21
:10205000E5D1FEF737FE401B41F288339842F2D9B2
:102060000326DCE700100240007000403746B8F15C
:10207000000F40F00081236813F0010F08D09D4A43
:10208000D2F8883023F00303A16B0B43C2F88830E9
:10209000236813F0020F08D0964AD2F8883023F054
:1020A0000C03E16B0B43C2F88830236813F0040F74
:1020B00008D0904AD2F8883023F03003216C0B43CB
:1020C000C2F88830236813F0080F08D0894AD2F884
:1020D000883023F0C003616C0B43C2F8883023685A
:1020E00013F0100F08D0834AD2F8883023F44073DD
:1020F000A16C0B43C2F88830236813F0200F08D07E
:102100007C4AD2F8883023F44063E16C0B43C2F878
:102110008830236813F4007F08D0764AD2F88830DC
:1021200023F44023E16D0B43C2F88830236813F495
:10213000806F08D06F4AD2F8883023F44013216EA4
:102140000B43C2F88830236813F0400F08D0694A67
:10215000D2F8883023F44053216D0B43C2F8883005
:10216000236813F0800F08D0624AD2F8883023F435
:102170004043616D0B43C2F88830236813F4807FBD
:1021800008D05C4AD2F8883023F44033A16D0B4369
:10219000C2F88830236813F4005F0FD0554AD2F894
:1021A000883023F04063E16E0B43C2F88830E36E61
:1021B000B3F1006F65D0B3F1806F67D0236813F47B
:1021C000002F0FD04B4AD2F8883023F04063216FA4
:1021D0000B43C2F88830236FB3F1006F5ED0B3F1C8
:1021E000806F60D0236813F4802F0FD0414AD2F85B
:1021F000883023F04063616F0B43C2F88830636F0F
:10220000B3F1006F57D0B3F1806F59D0236813F446
:10221000804F0FD0374AD2F8883023F04053A16F57
:102220000B43C2F88830A36FB3F1805F50D0B3F195
:10223000005F55D0236813F4004F08D02D4AD2F820
:10224000883023F08043E16F0B43C2F88830236865
:1022500013F4803F09D0274AD2F8883023F0004396
:10226000D4F880100B43C2F88830384602B0BDE87D
:10227000F0813746FBE61F4A936D23F08053936548
:10228000F9E6D36843F48013D36097E70121201D5A
:10229000FFF7AAFC002891D007468FE7D36843F4E4
:1022A0008013D3609EE70121201DFFF79DFC0028CD
:1022B00098D0074696E7D36843F48013D360A5E728
:1022C0000121201DFFF790FC00289FD007469DE7C5
:1022D0000221201DFFF788FC0028ABD00746A9E7A4
:1022E000022104F12000FFF737FD0028A2D00746A5
:1022F000A0E700BF001002402DE9F04782B005467C
:10230000884617461E46FEF7DDFC0A9B1B1A03EBA8
:102310000609FEF7D7FC82462B4B1B68C3F3CB3371
:1023200009FB03F301932B689C6838EA04030CBF94
:102330004FF0010C4FF0000CBC4540D0B6F1FF3F10
:10234000F1D0FEF7BFFCA0EB0A0048450AD2B9F174
:10235000000F07D0019A02B14A46019B013B01934D
:102360009146E0E72A68536823F0E00353606B6806
:10237000B3F5827F0BD0AB6AB3F5005F14D00123B5
:1023800085F85D30002385F85C30032018E0AB68E9
:10239000B3F5004F02D0B3F5806FECD12A68136813
:1023A00023F040031360E6E72A68136823F4005320
:1023B00013602A68136843F400531360DFE70020BA
:1023C00002B0BDE8F08700BF000000202DE9F04713
:1023D00082B006460C4615461F4600238DF8033092
:1023E000FEF770FC0A9B1B1A03EB0708FEF76AFC5A
:1023F0008146D6F800A0314B1B6803EB8303C3EB87
:10240000C3031B0D08FB03F3019302E0B7F1FF3F89
:1024100012D133689B6803EA040CAC454AD0B4F58A
:10242000C06FF3D1002DF1D19AF80C30DBB28DF8EA
:1024300003309DF80330E9E7FEF744FCA0EB090008
:1024400040450AD2B8F1000F07D0019A02B14246C6
:10245000019B013B01939046DBE73268536823F010
:10246000E00353607368B3F5827F0BD0B36AB3F5B2
:10247000005F14D0012386F85D30002386F85C30BD
:10248000032018E0B368B3F5004F02D0B3F5806FB6
:10249000ECD13268136823F040031360E6E732683A
:1024A000136823F4005313603268136843F4005335
:1024B0001360DFE7002002B0BDE8F08700000020D5
:1024C00070B582B004460D46164600920B460022B7
:1024D0004FF4C051FFF77AFFB0B900962B460022A7
:1024E00080212046FFF708FFA8B900962B4600225E
:1024F0004FF4C0612046FFF769FF50B1236E43F0EF
:1025000020032366032004E0236E43F020032366A8
:10251000032002B070BD236E43F020032366032026
:10252000F7E700286AD010B50446436A33B9436818
:10253000B3F5827F05D00023C36102E0002303616D
:1025400043610023A36294F85D30002B4DD0022339
:1025500084F85D302268136823F040031360E36859
:10256000B3F5E06F47D90022B3F5706F04D0B3F52F
:10257000E06F01D00023A362636803F48273A16853
:1025800001F404410B43216901F002010B4361692D
:1025900001F001010B43A16901F400710B43E169F2
:1025A00001F038010B43216A01F080010B43A16A5D
:1025B00001F4005120680B430360638B03F00403B4
:1025C000616A01F010010B43616B01F008010B43DC
:1025D000E16801F470610B43216813434B600020F4
:1025E0002066012384F85D3010BD84F85C302046FD
:1025F00000F0F6FFABE74FF48052B5E701207047DB
:102600002DE9F04383B01D4690F85C30012B00F0BB
:10261000F680044688469146012380F85C30FEF738
:1026200051FB074694F85D60F6B2012E40F0D4806D
:10263000B8F1000F00F0D180B9F1000F00F0CD80AB
:10264000032384F85D3000232366C4F83880A4F89F
:102650003C90A4F83E902364A4F84430A4F846309B
:102660002365E364A368B3F5004F1ED023681A689E
:1026700012F0400F03D11A6842F040021A60E3687A
:10268000B3F5E06F42D9636813B1B9F1010F23D1FB
:10269000A26B23681288DA60A36B0233A363E38F13
:1026A0009BB2013B9BB2E38716E02268136823F0DC
:1026B000400313602268136843F480431360D5E736
:1026C000FEF700FBC01BA84203D3B5F1FF3F40F06B
:1026D0008E80002D00F08D80E38F9BB2002B66D0A2
:1026E00023689A6812F0020FEAD0A26B1288DA60AF
:1026F000A36B0233A363B4F83EC01FFA8CFC0CF149
:10270000FF3C1FFA8CFCA4F83EC0E5E7636813B1F8
:10271000B9F1010F33D1E38F9BB2012B0CD9A26B1E
:1027200023681288DA60A36B0233A363E38F9BB242
:10273000023B9BB2E38722E0A26B236812781A73F4
:10274000A36B0133A363E38F9BB2013B9BB2E3878F
:1027500015E0A36B1B781373A36B0133A363E38FA3
:102760009BB2013B9BB2E38709E0FEF7ABFAC01BCB
:10277000A84202D3B5F1FF3F3DD1002D3DD0E38FFC
:102780009BB2A3B12268936813F0020FEDD0E38FE0
:102790009BB2012BDDD9A36B1B88D360A36B0233E3
:1027A000A363E38F9BB2023B9BB2E387E7E73A4622
:1027B00029462046FFF784FE08B120232366A3683C
:1027C00033B901932368DA6801929B680193019BF6
:1027D000236E13B9002600E00226012384F85D3041
:1027E000002384F85C30304603B0BDE8F083032654
:1027F000F3E70326F1E70326EFE70326EDE70226DA
:10280000F1E710B4036A046A24F0010404628469E5
:1028100024F0F00C4CEA021223F00A030B4382610D
:10282000036210BC704710B4046A24F01004046200
:102830008469036A24F4704C4CEA023223F0A0034A
:1028400043EA01138261036210BC7047836823F07E
:1028500070030B4343F007038360704790F83D30EB
:10286000DBB2012B36D1022380F83D300268D368F9
:1028700043F00103D3600368194A93421CD0B3F1BB
:10288000804F19D0A2F59432934215D002F58062A0
:10289000934211D002F5806293420DD002F594323A
:1028A000934209D002F54062934205D01A6842F083
:1028B00001021A600020704799680A4A0A40062AF5
:1028C0000AD0B2F5803F09D01A6842F001021A60BE
:1028D000002070470120704700207047002070479B
:1028E000002C014007000100704770477047704797
:1028F00010B5044603681A6912F0020F11D0DA68A5
:1029000012F0020F0DD06FF002021A61012303775B
:1029100003689B6913F0030F79D0FFF7E6FF0023EC
:10292000237723681A6912F0040F12D0DA6812F0C4
:10293000040F0ED06FF004021A610223237723687C
:102940009B6913F4407F68D02046FFF7CEFF002339
:10295000237723681A6912F0080F12D0DA6812F090
:10296000080F0ED06FF008021A6104232377236842
:10297000DB6913F0030F57D02046FFF7B6FF0023A3
:10298000237723681A6912F0100F12D0DA6812F058
:10299000100F0ED06FF010021A61082323772368FE
:1029A000DB6913F4407F46D02046FFF79EFF0023EB
:1029B000237723681A6912F0010F03D0DA6812F046
:1029C000010F3FD123681A6912F0800F03D0DA6833
:1029D00012F0800F3DD123681A6912F4807F03D072
:1029E000DA6812F0800F3BD123681A6912F0400FA9
:1029F00003D0DA6812F0400F39D123681A6912F057
:102A0000200F03D0DA6812F0200F37D110BDFFF786
:102A10006BFF2046FFF76AFF81E72046FFF764FF60
:102A20002046FFF763FF92E72046FFF75DFF204651
:102A3000FFF75CFFA3E72046FFF756FF2046FFF7AE
:102A400055FFB4E76FF001021A61204600F03AFE2C
:102A5000B8E76FF080021A61204600F084F9BAE707
:102A60006FF480721A61204600F07EF9BCE76FF0C7
:102A700040021A612046FFF73AFFBEE76FF02002DE
:102A80001A61204600F06EF9C0E700000368304A82
:102A9000904212D0B0F1804F0FD0A2F59432904204
:102AA0000BD002F58062904207D002F5806290421E
:102AB00003D002F59432904203D123F070034A68A8
:102AC0001343234A90421ED0B0F1804F1BD0A2F591
:102AD0009432904217D002F58062904213D002F5F2
:102AE000806290420FD002F5943290420BD002F5F2
:102AF0004062904207D002F58062904203D002F516
:102B00008062904203D123F44073CA68134323F0D8
:102B100080034A69134303608B68C3620B68836256
:102B20000B4B98420FD003F5006398420BD003F58E
:102B30004063984207D003F58063984203D003F5C1
:102B40008063984201D10B6903630123436170479D
:102B5000002C014060B310B5044690F83D3013B32B
:102B6000022384F83D30214651F8040BFFF78EFF15
:102B7000012384F8483084F83E3084F83F3084F8EC
:102B8000403084F8413084F8423084F8433084F88F
:102B9000443084F8453084F8463084F8473084F86F
:102BA0003D30002010BD80F83C3000F063FDD7E7D9
:102BB0000120704710B4846824F47F4C42EA032259
:102BC0000A4342EA0C02826010BC704790F83C3025
:102BD000012B76D010B50446012380F83C30022347
:102BE00080F83D3002689068374B034093600B6873
:102BF000602B4CD029D8402B54D00CD9502B22D14B
:102C0000CA6849682068FFF7FCFD50212068FFF77B
:102C10001DFE002005E0202B0DD009D9302B0AD055
:102C20000120012384F83D30002384F83C3010BD9E
:102C30000BB1102B05D119462068FFF707FE0020C5
:102C4000EFE70120EDE70120EBE7B3F5805F34D03B
:102C5000B3F5005F0CD1CB684A6889682068FFF73C
:102C6000A9FF2268936843F4804393600020D8E76B
:102C7000702B24D1CB684A6889682068FFF79AFFD7
:102C80002268936843F0770393600020C9E7CA681D
:102C900049682068FFF7C7FD60212068FFF7D6FD6F
:102CA0000020BEE7CA6849682068FFF7AAFD4021F6
:102CB0002068FFF7CBFD0020B3E70020B1E701203B
:102CC000AFE70220704700BF8800FEFF90F83C305D
:102CD000012B42D030B4012380F83C30022380F82D
:102CE0003D300268536894681D4DAA4203D005F533
:102CF0000065AA4203D123F470034D682B4323F0EF
:102D000070030D682B4353600368154A934216D035
:102D1000B3F1804F13D0A2F5943293420FD002F555
:102D2000806293420BD002F58062934207D002F595
:102D30009432934203D002F54062934204D124F0CE
:102D400080048A6814439C60012380F83D3000238E
:102D500080F83C30184630BC70470220704700BFF6
:102D6000002C0140704770477047000010B50446C2
:102D70008368026913434269134343F400430168C3
:102D800008684B4A024013430B60236A43F4006215
:102D9000A369E1690B431343E2681A4321684B6856
:102DA00023F47C5313434B602368424A934219D067
:102DB000414A934221D0414A93422ED00023012020
:102DC000A3F110014FF6EF7291426FD89AB222F040
:102DD0000F02C3F3420313432268D3600023A363AB
:102DE000E36310BD364BD3F8883003F00303032BA5
:102DF00056D8DFE803F0371D4B2C314BD3F8883021
:102E000003F00C030C2B4ED8DFE803F0364D4D4D8C
:102E1000124D4D4D404D4D4D2100294BD3F888307A
:102E200003F03003202B31D00FD82BB3102B09D156
:102E3000FEF784FA61684A0802EB4003B3FBF1F342
:102E40000020BDE700230120BAE7302B07D16068DE
:102E5000430803F58033B3FBF0F30020B0E7002311
:102E60000120ADE7FEF7AEFE6268530803EB4003B6
:102E7000B3FBF2F30020A3E7FEF792FE61684A0875
:102E800002EB4003B3FBF1F3002099E760684308CD
:102E900003F1F47303F59043B3FBF0F300208FE7E5
:102EA000002301208CE70023012089E7012095E71A
:102EB000F369FFEF00380140004400400048004043
:102EC000001002402DE9F84305460F461646994684
:102ED000DDF820802C68E46937EA04030CBF4FF06A
:102EE000010C4FF0000CB44513D1B8F1FF3FF1D005
:102EF000FDF7E8FEA0EB0900404502D8B8F1000F4D
:102F0000E8D1012385F84930002385F848300320B3
:102F100000E00020BDE8F88330B583B0044600230C
:102F2000C364FDF7CFFE05462268126812F0080F51
:102F30000CD123681B6813F0040F15D1012384F80A
:102F40004930002084F8480003B030BD4FF47A7354
:102F50000093034600224FF400112046FFF7B2FF12
:102F60000028E6D00320EFE74FF47A7300932B4656
:102F700000224FF480012046FFF7A4FF0028DDD097
:102F80000320E1E748B310B5044690F84930FBB19F
:102F9000022384F849302268136823F00103136088
:102FA0002046FFF7E3FE012811D02268536823F47E
:102FB000804353602268936823F02A039360226859
:102FC000136843F0010313602046FFF7A5FF10BD0F
:102FD00080F84830FDF7D8FDDAE70120704700009F
:102FE00030B589B0164BDA6C42F00402DA64DA6C60
:102FF00002F004020192019ADA6C42F00802DA64EB
:10300000DB6C03F008030293029B4FF4E06303932D
:1030100000250495022305930324069403A9094877
:10302000FDF7E2FF4FF4005303930495012305934A
:10303000069403A90448FDF7D7FF09B030BD00BFCF
:1030400000100240000C00480008004808B50128A4
:103050001CD0384B1B785BB34FF480613648FEF7C9
:10306000C9F828B14FF400713348FEF7C3F888B9A6
:103070000A2000F083F82F4B00221A704FF4806171
:103080002D48FEF7B7F8E0B9012019E0294B0122DD
:103090001A70DEE74FF480712748FEF7ABF800287E
:1030A000E6D04FF400512548FEF7A4F80128DFD000
:1030B0004FF480612048FEF79DF8012816D00020CB
:1030C00008BD4FF400711C48FEF794F850B34FF45C
:1030D00080711948FEF78EF830B34FF4005117484D
:1030E000FEF788F8012821D00020E9E74FF40071AD
:1030F0001148FEF77FF8012801D00020E0E74FF4E7
:1031000080710D48FEF776F8012801D00020D7E73E
:103110004FF400510948FEF76DF848B9054B0122FC
:103120001A70CDE70220CBE70320C9E70420C7E7E8
:103130000020C5E70C000020000C004800080048F3
:1031400010B44FF0E02254690B4B1B6800FB03FCEA
:103150009369002104E0E01A02441144614509D258
:103160001A464FF0E0239B699A42FAD0F3D9D21A5B
:103170001144F3E710BC70474806002038B50546F7
:10318000002404E04FF47A70FFF7DAFF0134A5421F
:10319000F8D838BDF8B506460F46104DA5FB0135E9
:1031A000ED0B00240DE0C4EB04400C4BA3FB072304
:1031B000DB0BC3EB0343FB1A99B2304400F03AFA3D
:1031C0000134AC4209D8AC42EDD0C4EB04404FF618
:1031D000FF71304400F02EFAF2E7F8BD0180008064
:1031E00000B583B08DF80700012210210548FEF7D5
:1031F00008F801210DF10700FFF7CCFF03B05DF8DF
:1032000004FB00BF0004004800B583B08DF8070040
:10321000002210210548FDF7F4FF01210DF1070000
:10322000FFF7B8FF03B05DF804FB00BF00040048DF
:10323000F0B589B0234BDA6C42F00202DA64DA6C42
:1032400002F002020192019ADA6C42F00802DA649A
:10325000DB6C03F008030293029BD0250395012643
:103260000496059602230693174C03A92046FDF702
:10327000BBFE002229462046FDF7C3FF80250395AB
:10328000124F03A93846FDF7AFFE00222946384603
:10329000FDF7B7FF002229463846FDF7B2FF0022AE
:1032A00029462046FDF7ADFF002240212046FDF7CC
:1032B000A8FF324640212046FDF7A3FF00F06AF93F
:1032C00009B0F0BD0010024000040048000C0048A6
:1032D00000B583B00023ADF80430030A8DF8043044
:1032E0008DF80500012210210448FDF78AFF022114
:1032F00001A8FFF74FFF03B05DF804FB000400488E
:10330000F8B507460D4616461C462A20FFF77CFFF7
:10331000380AFFF765FFF8B2FFF762FF300AFFF7E0
:103320005FFFF0B2FFF75CFF2B20FFF76DFF280A6D
:10333000FFF756FFE8B2FFF753FF200AFFF750FFF1
:10334000E0B2FFF74DFF2C20FFF75EFFF8BD000055
:1033500070B582B00024ADF80440060A8DF8046010
:10336000C5B28DF80550EF231A4621462046FFF7D7
:10337000C7FF214607E04B000D4A02F811600133F8
:10338000D554013189B2B1F5107FF4D30122102157
:103390000848FDF736FF002406E04FF4906104482A
:1033A000FFF7F8FE0134A4B2632CF6D902B070BD69
:1033B0004C0600200004004808B5FFF739FF7820CC
:1033C000FDF786FC1120FFF71FFF7820FDF780FC3A
:1033D0003620FFF719FF0020FFF702FF3A20FFF722
:1033E00013FF6520FFF7FCFEB220FFF70DFF0C2056
:1033F000FFF7F6FE0C20FFF7F3FE0020FFF7F0FECC
:103400003320FFF7EDFE3320FFF7EAFEB720FFF78A
:10341000FBFE7220FFF7E4FEBB20FFF7F5FE3D2028
:10342000FFF7DEFEC020FFF7EFFE2C20FFF7D8FEEF
:10343000C220FFF7E9FE0120FFF7D2FEC320FFF70D
:10344000E3FE1920FFF7CCFEC420FFF7DDFE2020AD
:10345000FFF7C6FEC620FFF7D7FE0F20FFF7C0FE1E
:10346000D020FFF7D1FEA420FFF7BAFEA120FFF77E
:10347000B7FEE020FFF7C8FED020FFF7B1FE042022
:10348000FFF7AEFE0D20FFF7ABFE1120FFF7A8FE01
:103490001320FFF7A5FE2B20FFF7A2FE3F20FFF72A
:1034A0009FFE5420FFF79CFE4C20FFF799FE18204A
:1034B000FFF796FE0D20FFF793FE0B20FFF790FE1F
:1034C0001F20FFF78DFE2320FFF78AFEE120FFF784
:1034D0009BFED020FFF784FE0420FFF781FE0C2026
:1034E000FFF77EFE1120FFF77BFE1320FFF778FE2B
:1034F0002C20FFF775FE3F20FFF772FE4420FFF7F8
:103500006FFE5120FFF76CFE2F20FFF769FE1F2092
:10351000FFF766FE1F20FFF763FE2020FFF760FE27
:103520002320FFF75DFE2120FFF76EFE2920FFF725
:103530006BFEEF231A4600210846FFF7E1FE4FF627
:10354000FF70FFF705FF012280210248FDF759FEB9
:1035500008BD00BF000400482DE9F84381460F462E
:1035600016469846089D013B013A9BB292B2FFF77E
:10357000C7FE09E035F8020BFFF7AAFE0134A4B23A
:10358000B442F7D30137BFB2474501D24C46F7E703
:10359000BDE8F88310B5104C104B23604FF48273D4
:1035A00063600023A3604FF4E062E26002222261C4
:1035B000012262614FF40072A261E36123626362DF
:1035C000A3620723E3622046FEF7ABFF226813687D
:1035D00043F04003136010BDCC0A0020003C0040C3
:1035E00000B589B0114BDA6C42F00202DA64DA6C91
:1035F00002F002020192019A9A6D42F400429A6529
:103600009B6D03F400430293029B28230393022340
:10361000049301230593032306930623079303A929
:103620000348FDF7E1FC09B05DF804FB001002401F
:103630000004004808B50A464FF47A730146024870
:10364000FEF7DEFF08BD00BFCC0A002010B5074C16
:10365000074B236061600023A360E0602361204684
:10366000FFF778FA2046FFF7F9F810BD300B00207D
:103670000004004002680E4B9A4200D0704700B52B
:1036800083B003F503339A6D42F002029A659B6D95
:1036900003F002030193019B032201211D20FDF78A
:1036A0003DFB1D20FDF772FB03B05DF804FB00BF7E
:1036B0000004004008B50248FFF71AF908BD00BF32
:1036C000300B002008B5044B834200D008BD012018
:1036D00013F022FAFAE700BF300B002010B582B0D9
:1036E0000446B1F90000B1F902E0B1F804C0CB889A
:1036F00001330CF1010C00929BB21FFA8CF21FFAFD
:103700008EF180B2FFF728FF204600F0D7F802B014
:1037100010BD08B5FFF750FE08BD000010B582B01F
:10372000FFF7F7FFF021084600F0F8F804460649D5
:1037300000F0B9F8002200924FF496530349204656
:1037400000F09DF802B010BDDD3600087C0B0020B3
:1037500008B5024800F0B2F808BD00BF3C1E0020CA
:1037600008B50020FFF772FC08BD000010B50C463C
:10377000FFF7F6FFA0B103460122A27302280BD087
:1037800003280BD0904205D0074A1360064B1B68F4
:10379000636010BD0923F7E70B23F5E70A23F3E77E
:1037A0000023A373F2E700BFF81F002008B5FFF75E
:1037B00017FC08BD10B5FFF7F9FF01F087F9054CBC
:1037C0002060022101F0EAF90349206801F0EDF9D7
:1037D00010BD00BFF41F00206D370008014B1868B2
:1037E000704700BFFC1F002008B520B10146044807
:1037F00016F066FC08BD024816F05AFCFAE700BF56
:103800001C22002008B5034658B18BB193F89C21C7
:10381000C2F34102012A08D0032A06D0B3F90000FE
:1038200005E0FFF7DBFF0346EFE7B3F9020008BD51
:103830000020FCE708B5034658B18BB193F89C21F2
:10384000C2F34102012A08D0032A06D0B3F90200CC
:1038500005E0FFF7C3FF0346EFE7B3F9000008BD3B
:103860000020FCE708B5034618B133B1B3F90C00EA
:1038700008BDFFF7B3FF0346F7E78220F8E7F8B586
:103880000D4617461E46044648B13CB125616761A6
:10389000A561E6619DF8183084F82D30F8BDFFF77A
:1038A0009DFF0446F1E710B50C46034610B103B185
:1038B0001C6210BDFFF792FF0346F8E70023436246
:1038C000836270474069003818BF01207047F8B51F
:1038D00004460F4616461D46D0F8581151B1D0F88F
:1038E000603103B19847D4F8580116F0CBFD00239E
:1038F000C4F85831C4F85C71C4F86061C4F864510C
:10390000284616F0B5FD054638B1D4F85C310146BD
:1039100020469847C4F85851F8BDFEE770B582B00C
:1039200006460D464F4816F085FB002800F09080B3
:1039300004464FF4DC72002116F0C4FD2680658039
:103940004FF6FF73A380E38000232381638194F803
:103950002E3043F0010384F82E308223E3604FF4CD
:10396000FC63A4F8B43160233F4A40492046FFF786
:10397000AEFFD4F8583109221A730123C4F8543128
:103980003B4B1D681C6022460A213A4817F09CFEFA
:10399000C4F8A40100285CD01DF01AFC002859D1FD
:1039A000052016F0F7F80646002016F0F3F8024658
:1039B000314B00930023314620461DF011FCC4F822
:1039C000A001002002F070FFC4F87801002002F08E
:1039D0006BFFC4F86C01002002F066FFC4F87C01A4
:1039E000002002F061FFC4F88001D4F8780108F0EB
:1039F00067F8D4F87C0108F063F8D4F8800108F087
:103A00005FF80221D4F87C0102F093FF0221D4F880
:103A1000800102F08EFF0021D4F8780105F092FEBB
:103A20000021D4F87C0105F08DFE0021D4F880013E
:103A300005F088FED4F86C0104F070FE0C4B1D609C
:103A40006DB1D4F8A40117F043FF204602B070BD59
:103A5000FEE7FEE71DF01CFCC4F8A001B1E71C6006
:103A6000EFE700BF1C22002071000108DDFF000805
:103A7000FC1F00206DD00008442C030808B5034645
:103A800018B133B1D3F86C0108BDFFF7A7FE0346A8
:103A9000F7E71846F8E708B5034618B133B1D3F88D
:103AA000700108BDFFF79AFE0346F7E71846F8E7EE
:103AB00008B5034618B133B1D3F87C0108BDFFF750
:103AC0008DFE0346F7E71846F8E708B5034618B138
:103AD00033B1D3F8800108BDFFF780FE0346F7E756
:103AE0001846F8E708B5034618B133B1D3F87801A2
:103AF00008BDFFF773FE0346F7E71846F8E770B511
:103B000088B004460E4615461C22002101A816F076
:103B1000D9FC8DF80C6001940294059504F5CA74E3
:103B2000012201A9204616F079F8012801D008B039
:103B300070BD002201A9204616F070F8F7E708B51D
:103B4000034610B1D3F8A00108BDFFF747FE0346B6
:103B5000F8E708B5034638B153B1D3F8540100284B
:103B6000D4BF0020012008BDFFF738FE0346F3E76D
:103B70000020F8E72DE9F0410646002000F0D8FFCC
:103B800004460027B84605E02746A046204600F038
:103B9000CFFF044674B1204601F00AF805462046DE
:103BA00001F00BF88642F1D1022D11D0042DEBD09B
:103BB0002746EBE7B8F1000F02D04046BDE8F081A0
:103BC0000FB1B846F9E7002000F0B2FF8046F4E7F5
:103BD000A046F2E72DE9F047037F13F0010F6FD104
:103BE00006468A469146C5684FF001080027E5B1B0
:103BF000012357B32BB129463046C84705468742B3
:103C000069D0002DF3D0286802F001FF10F0800F7A
:103C1000EDD12C68ECB10121204602F0EBFEC0B9D9
:103C2000204608F021F80446F4E7337F13F0080F2C
:103C300001D1002F49D1B8F1000F43D03046D04711
:103C400005464FF000084346D3E7002D40D02F46ED
:103C5000D0E72CB10121204602F0CCFE0028C6D1CD
:103C6000F368AB423AD08BB11C683046FFF782FF55
:103C700002461021204603F054FE012802D04FF0E6
:103C800000081FE0F368186804F048FDF5602C6830
:103C90003046FFF76FFF02460F21204603F041FE3A
:103CA000012802D04FF000080CE0F368186804F017
:103CB00035FD3369ABB1304698474FF0010801E05C
:103CC0004FF000084046BDE8F0874FF00008F9E7E4
:103CD0004FF00008F6E74FF00008F3E74FF0000858
:103CE000F0E74FF00108EDE708B52021014816F094
:103CF00099F908BDB822002010B5104816F09AF9BD
:103D0000D0B10446042116F08DF90023E360227F30
:103D100063F30002227723616361D2B263F341024D
:103D20002277D2B242F004022277D2B242F00802E5
:103D30002277A361204610BDFEE700BFB822002015
:103D4000014B1860704700BF00200020014B18682D
:103D5000704700BF0020002010B50446054A064900
:103D6000FFF738FF63691BB110B90121204698475E
:103D700010BD00BFC1A00108B1A0010810B50446E4
:103D8000054A0649FFF726FF63691BB110B90021F8
:103D90002046984710BD00BFC9A00108B9A001087E
:103DA00038B50446037FC3F3C00543F00803037727
:103DB000DBB213F0040F06D1FFF7CEFF237F65F3CC
:103DC000C303237738BDFFF7D9FFF7E770B5064681
:103DD00002F025FE002849D00546C36813B11B68D0
:103DE000B34213D0EB6813B11B68B34230D02846FE
:103DF00016F05EF90446002C38D02368B3422AD06E
:103E00002146284616F05CF90446F4E7037F13F0D8
:103E1000010F03D0037F6FF300030377284616F0EA
:103E200047F9EB68834203D02846FFF7B9FFD9E78B
:103E3000284616F041F9EB688342F5D11C68284604
:103E4000FFF798FE02461021204603F06AFDC9E7FD
:103E50000023EB60CBE72146284616F038F92046D0
:103E600016F010FBB3680BB100229A6070BD0028F9
:103E700039D070B50C4605460846FFF7A7FF28461F
:103E800016F016F9014639B10B68A3421ED0284638
:103E900016F016F90146F6E7204602F0C0FD30B1F3
:103EA000A3689B681BB1DB681B68A3420FD0A368A3
:103EB00083B1A3689D60284616F0DBF8064668B11A
:103EC0000460284616F0F4F8864208D070BDFFF76B
:103ED00067FFECE7204602F0B7FFEAE7FEE7284677
:103EE000FFF75EFFF2E7704718B1C06808B10068DD
:103EF0007047704710B582B00191FFF7F5FF68B1C8
:103F00000446802102F085FD10B1012002B010BDF1
:103F100001AA0E21204603F004FDF7E70120F5E792
:103F2000F8B170B50446037FC3F340038B4213D04E
:103F3000037F61F341030377FFF7D6FF054658B1CE
:103F4000E3681E682046FFF715FE02460F21304643
:103F500003F0E7FC012800D070BD284604F0DEFB2A
:103F6000FAE77047002845D0F8B5054602F057FD3E
:103F7000064618B1037F13F0010F00D0F8BD0021F1
:103F8000FFF7CEFF304616F093F80446002CF5D02C
:103F90002368AB4205D02146304616F091F804461E
:103FA000F4E7F36883B11F68AF420DD03046FFF7E6
:103FB000E1FD02461021384603F0B3FC0128DDD1B3
:103FC000F368186804F0AAFBF46033690BB130465B
:103FD0009847F3681C683046FFF7CCFD02460F2176
:103FE000204603F09EFC0128C8D1F368186804F04D
:103FF00095FBC3E7704718B1007FC0F340007047DE
:104000000020704708B516F0BAF808BD437B13F0DE
:10401000020F21D00023C36403654365427B63F331
:104020000002427303614361A0F84030A0F84230BF
:1040300090F8682063F3030280F86820A0F8443009
:10404000A0F84630A0F86430A0F86630427B63F3F5
:1040500041024273014A1360704700BF08200020EC
:10406000407B10F0020F02D0024B00221A60C0F316
:10407000400070470820002038B5044604213E4B1C
:10408000186802F0B7FC00B938BD3B4B186802F065
:10409000C6FC0546A06D08B102F0C1FCA8421FD0C5
:1040A000002841D0A36D63B100284CD0334A126878
:1040B0001121184603F035FC2046FFF7D1FF0028F8
:1040C000E2D1002D4BD02C4B1868FFF74BFF204658
:1040D000FFF7C6FF0028D7D1274B1B68A365D3E79E
:1040E0004DB1254B1868FFF73DFF2046FFF7B8FF9D
:1040F0000028F1D0C8E7A06D48B1204B1A68102104
:1041000003F00FFC2046FFF7ABFF0028BCD11B4B90
:104110001A680F21184B186803F003FC2046FFF7BC
:104120009FFF0028D8D0AFE7A36D002BBAD0134A69
:1041300012681021184603F0F4FB2046FFF790FFA9
:104140000028BED0A0E70D4A12681021184603F0DF
:10415000E8FB2046FFF784FF0028B2D094E7074B26
:104160001A680F21044B186803F0DBFB2046FFF7A9
:1041700077FF0028B0D087E7082000200420002027
:1041800038B5436D03B138BD054690F8693013F07A
:10419000010FF8D1C46C03E0204607F065FD04462A
:1041A00034B14FF40041204602F024FC0028F3D142
:1041B000002CE8D0B5F93C3083EAE371A1EBE37160
:1041C00089B2354A126892F82A0081420CD2B5F9B8
:1041D0003E100029B8BF494289B2884204D9002163
:1041E000A5F86410A5F86610B5F8641011FA83F309
:1041F0001BB2A5F86430E98FB5F86600014409B236
:10420000A5F8661083EAE370A0EBE37080B292F841
:104210002BC0604507D881EAE17EAEEBE17E1FFA54
:104220008EFEF445AFD295F869C04CF0010C85F8CC
:1042300069C081EAE17CACEBE17C1FFA8CFC604553
:1042400018D9002B0EDD95F86830022161F30713B1
:1042500085F868300D21204603F063FB2846FFF700
:10426000FFFE90E795F86830012161F3071385F8A8
:104270006830EFE7002907DD95F86830082161F321
:10428000071385F86830E5E795F86830042161F395
:10429000071385F86830DDE7042000202DE9F041A0
:1042A00082B00446437B13F0080F2DD1E06C4F4BD6
:1042B0001860676D002800F08F804D4B1A68082148
:1042C00003F02FFB2046FFF7CBFE002840F08B8049
:1042D000002F2ED0464B1A680A21384603F021FBE6
:1042E0002046FFF7BDFE00287DD10023E364236153
:1042F0006361002F70D01E46ADF80430ADF8063073
:104300003D464FF480783AE0394B1A680321C06C7F
:1043100003F007FB2046FFF7A3FE002863D100232C
:10432000E364236523616361627B63F3C3026273A9
:10433000BCE7637B13F0010F0BD12D4B1A680421EE
:104340002A4B186803F0EDFA2046FFF789FE002893
:1043500049D1274B1A680721244B186803F0E1FA6A
:104360002046FFF77DFE0028BFD03CE01B1213FB68
:1043700008F30FFA83F8284607F076FC05468DB15E
:104380006D220021284606F071FF16FA80F636B23B
:104390006C220021284606F069FF03B2002BE5DA03
:1043A000FF33E3E716B9B8F5807F15D0764236B211
:1043B0004FF4803393FBF8F80FFA88F801AB4246CC
:1043C000314604F1440014F041FD01AB4246314650
:1043D00004F1480014F03AFD2FB1204601F0C8FC6A
:1043E0002046FFF73DFE02B0BDE8F0810820002026
:1043F00004200020F8B504460D468B7B012B31D0FC
:10440000637B13F0080F0BD0637B6FF3C3036373FD
:1044100000232361627B63F30002627384F86C30D3
:10442000A66FF6B13046FFF75FFD984B1860C0B13C
:10443000802102F0EEFA0746216F6B68236794F83B
:104440006C20AB7B84F86C30012B10D00FB9012BA2
:104450006AD01FB913B9012A00F0E3808B4B002208
:104460001A60F8BD437B13F0080FC9D0F9E7002AA2
:10447000ECD112F05DFB20616968092910D00B298D
:104480001BD0002FEAD10A2924D01B2937D030466F
:10449000FFF730FD2046FFF7E3FD0028DED0E0E720
:1044A00000213046FFF73CFD3046FFF755FC204623
:1044B000FFF7D6FD0028D1D0D3E700213046FFF723
:1044C0002FFD3046FFF75AFC2046FFF7C9FD0028B4
:1044D000C4D0C6E73046FFF70DFD2046FFF7C0FD0C
:1044E0000028BED16A4B1A680121684B186803F096
:1044F00018FA2046FFF7B4FD0028AFD0B1E73046E8
:10450000FFF7F8FC2046FFF7ABFD0028A9D1604B70
:104510001A6821215D4B186803F003FA2046FFF763
:104520009FFD00289AD09CE7012A92D16B680A2B44
:1045300021D0637B13F0010F2AD0637B13F0010FAE
:104540008CD0606912F002FBE38D984286D912F09C
:10455000EFFA606169680A2939D0092945D00B2929
:1045600051D03046FFF7C6FC2046FFF779FD002802
:104570003FF474AF75E7464B1A680221434B186845
:1045800003F0CFF92046FFF76BFD0028D1D068E794
:10459000206912F0DBFAA38D9842CED9637B43F0F9
:1045A000010363736B680A2B7FF458AF12F0C0FAF3
:1045B0006061374B1A680521344B186803F0B1F974
:1045C0002046FFF74DFD00283FF448AF49E7304B48
:1045D0001A6806212D4B186803F0A3F92046FFF74F
:1045E0003FFD00283FF43AAF3BE700213046FFF79C
:1045F00097FC3046FFF7B0FB2046FFF731FD00285F
:104600003FF42CAF2DE700213046FFF789FC304600
:10461000FFF7B4FB2046FFF723FD00283FF41EAF51
:104620001FE769600A2906D000222261637B62F3DA
:104630000003637312E7164B1A680821134B1868BE
:1046400003F06FF92046FFF70BFD00287FF409AF58
:10465000637B13F0010F0CD10D4B1A6804210B4B37
:10466000186803F05EF92046FFF7FAFC00287FF493
:10467000F8AE074B1A680721044B186803F051F98C
:104680002046FFF7EDFC0028CED0EAE60820002007
:1046900004200020F8B504460D468B7B012B3AD050
:1046A000637B13F0080F0BD0637B6FF3C30363735B
:1046B00000232361627B63F30002627384F86C3031
:1046C00094F86C70AB7B84F86C306B682367A66FD2
:1046D00006B33046FFF708FC9F4B1860D0B1AB7BA8
:1046E0000BB10023AB813046FFF7FEFB9A4B1860FD
:1046F00080B1AB7B012B13D0012B6BD013B9012FF1
:1047000000F0EB80944B00221A60B5F90C30002BBE
:1047100040F07E81F8BD437B13F0080FC0D0F9E76D
:10472000002FE9D112F004FA206169680A290ED03D
:10473000142930D0132933D01B2936D03046FFF747
:10474000D9FB2046FFF78CFC0028DBD0E2E7824B48
:10475000186802F044FCA0B101231F463046FFF761
:104760004AFC08B9002FCDD17C4B1A6801217A4B45
:10477000186803F0D6F82046FFF772FC0028C1D075
:10478000C8E71021744B186802F034F908B9002307
:10479000E3E70123E1E7B5F90C30013BAB81B1E779
:1047A000B5F90C300133AB81ACE73046FFF7A2FB23
:1047B0002046FFF755FC0028ACD1684B1A68212130
:1047C000654B186803F0ADF82046FFF749FC002858
:1047D00098D09FE7012F91D1637B13F0010F18D080
:1047E000637B13F0010F8DD0606912F0AFF9E38D98
:1047F000984287D912F09CF9606169680A294FD004
:1048000014295BD013295ED1B5F90C300133AB818B
:1048100078E7206912F09AF9A38D9842E0D9637B7A
:1048200043F00103637312F083F960616B680A2B34
:1048300004D0637B43F00103637363E7464B18685E
:1048400002F0CDFBA8B10123EBB13046FFF7DAFB54
:104850000128EED93046FFF7CEFB80F00101C9B246
:104860003046FFF75DFB20213B4B186802F0B5F89E
:10487000DFE71021384B186802F0BCF808B90023B4
:10488000E2E70123E0E7354B1A680521324B18684F
:1048900003F047F82046FFF7E3FB0028C9D039E7CB
:1048A0002E4B1A6806212C4B186803F03AF8204664
:1048B000FFF7D6FB00283FF425AF2BE7B5F90C3006
:1048C000013BAB811EE73046FFF714FB2046FFF7A4
:1048D000C7FB00283FF416AF1CE76B680A2B06D015
:1048E00000222261637B62F3000363730AE702F034
:1048F00076FB30B30123002B3AD1184B1A680821FC
:10490000154B186803F00DF82046FFF7A9FB0028A7
:104910007FF400AF637B13F0010F21D02046FFF737
:104920009FFB00287FF4F6AE0C4B1A6807210A4B58
:10493000186802F0F6FF2046FFF792FB0028CFD060
:10494000E8E61021044B186802F054F808B9002377
:10495000D1E70123CFE700BF08200020042000207A
:10496000584B1A680421584B186802F0DAFFD5E753
:104970003046FFF740FB002840D0637B13F0010F67
:1049800004D03046FFF73EFB012831D84D4B1A6862
:1049900008214D4B186802F0C4FF2046FFF760FB6A
:1049A00000287FF4B7AE474B1A680421464B1868BD
:1049B00002F0B7FF2046FFF753FB00287FF4AAAEB2
:1049C000404B1A680721404B186802F0AAFF2046A6
:1049D000FFF746FB00287FF49DAE0A213046FFF723
:1049E00089FA2046FFF73CFB00283FF479AF91E6B7
:1049F0002021354B186801F0F0FF71E7637B13F05D
:104A0000010F7FF46DAF01213046FFF789FA67E7A8
:104A10003046FFF7F0FA58B3B5F90C30002B14DB31
:104A2000002B7FF777AE0027B5F90C30BB427FF73C
:104A300071AE13213046FFF75DFA2046FFF710FBF9
:104A400000287FF467AE0137EEE70027B5F90C3098
:104A50005B42BB427FF75EAE14213046FFF74AFA55
:104A60002046FFF7FDFA00287FF454AE0137EDE74A
:104A7000B5F90C30002B13DB002B7FF74BAE002772
:104A8000B5F90C30BB427FF745AE3046FFF764F90D
:104A90002046FFF7E5FA00287FF43CAE0137EFE748
:104AA0000027B5F90C305B42BB427FF733AE30468E
:104AB000FFF764F92046FFF7D3FA00287FF42AAE07
:104AC0000137EEE7042000200820002010B5FEF793
:104AD00085FE154815F0AEFA28B304468022002161
:104AE00015F0F0FC637B43F00203637322460A2156
:104AF0000E4816F0E9FD6062FEF770FE20620023AA
:104B000023700A2384F8283084F829304FF4C873BE
:104B1000A3856423E385322384F82B30032384F8B0
:104B20002A30204610BDFEE70823002071510008FE
:104B300008B520B10146044815F0C2FA08BD024884
:104B400015F0B6FAFAE700BF0823002038B504468E
:104B50000D4610220021284615F0B4FC2378012BC5
:104B600006D0022B10D0042B08D10A236B6005E07D
:104B7000B4F938302B80B4F93A306B80636813B1E4
:104B800029462046984738BD236F6B60F6E7000042
:104B9000014B1868704700BF0420002020B101704D
:104BA000427B42F002024273704700B1416070479D
:104BB00008B1007870470020704708B1806F7047D7
:104BC0007047000010B50C4628B30346427B42F004
:104BD00002024273244A1268824205D01A78013ACE
:104BE000D2B2012A04D910BD204A00211160F5E794
:104BF00014B19A6DA24201D100229A6514B1DA6C07
:104C0000A24201D10022DA6414B11A6DA242EAD1A3
:104C100000221A65E7E70020FFF78AFF03E0002380
:104C20000365FFF785FFD0B1437B43F00203437375
:104C30000378013BDBB2012BF3D814B1836DA3429F
:104C400001D10023836514B1C36CA34201D10023B9
:104C5000C364002CE3D0036DA342E2D1DFE7034B32
:104C600000221A60BFE700BF0420002008200020B7
:104C700010B50446437B6FF30003437311F058FFF4
:104C8000606111F055FF206110BD0378022B01D047
:104C9000042B00D181677047034648B10278012A8E
:104CA0000AD0032A08D04FF6FF730B804B80704761
:104CB00000230B804B807047B3F930200A80B3F992
:104CC00032304B807047034648B10278012A01D048
:104CD000032A06D193F8680000F00F007047002007
:104CE000704700207047034630B10278012A01D096
:104CF000032A02D1586D7047704700207047002387
:104D00000B804B80034650B10278012A01D0032A60
:104D100005D1B3F93C200A80B3F93E304B8070478F
:104D200018B1437B43F0080343737047014B186885
:104D3000704700BF0820002070B582B005460C46C1
:104D4000012101F057FE78BB206801900123002269
:104D500001A9284603F080FB01A9284603F062FF61
:104D60000646002201A905F1140013F0D5FE28B96A
:104D70004FF40021284601F03DFE80B1284606F0A0
:104D8000B4FF441E002C0ADBAB681B6801A953F872
:104D90002400FFF7D1FF034618B9013CF2E72EB11A
:104DA0002B46184602B070BD0023FAE70023F8E74F
:104DB000F8B50446C06CA44B1860637B13F0080F71
:104DC00040F08F80A14B1B681D6A002800F08A808C
:104DD000636D002B00F0BF80E06C9B4B1B6898421A
:104DE00051D0B4F93030A386B4F93230E38648B1FB
:104DF000964B1A68032102F094FD2046FFF730F924
:104E000000286ED1904B1B68E3642365002B3AD0D9
:104E100011F08EFE2061637B6FF300036373002348
:104E2000A4F84030A4F8423094F8682063F30302F9
:104E300084F86820D2B263F3071284F8682094F8EB
:104E4000692063F3000284F86920A4F86430A4F8B0
:104E50006630A387E3877D4B1A6801217A4B186877
:104E600002F05FFD2046FFF7FBF8002839D1774BB1
:104E70001868437B13F0080F33D1FFF7FDF8204685
:104E8000FFF7EEF868BB228EA08E121A10B2A08730
:104E9000638EE18E5B1A19B2E187B4F944200244B3
:104EA00002EBD2725210A4F84420B4F946300B44FD
:104EB00003EBD3735B10A4F84630636CA364624BBE
:104EC000186870B1614B1A68022102F02AFD204671
:104ED000FFF7C6F828B95D4B1B685B7B13F0080F22
:104EE00061D0F8BD2846FEF7FDFD04F130063146DD
:104EF000FFF722FF544F38602846FEF7E6FD3146A3
:104F0000FFF71AFF3860A8B14F4B1B68D3B1236D70
:104F1000002B3FF461AF0023A4F84430A4F84630DE
:104F2000204600F025FF2046FFF79AF800283FF4BE
:104F300053AFD6E72846FEF7BBFD3146FFF7FCFE30
:104F40003860E1E72846FEF799FD3146FFF7F4FEA9
:104F50003D4B1860DBE74FF4005101F04BFD00289A
:104F60007FF43AAF2846FEF7B0FD04F13006314633
:104F7000FFF7E2FE344B186060B1334B1B68002B27
:104F8000C5D12846FEF77AFD3146FFF7D5FE2E4BF8
:104F90001860BCE72846FEF78BFD3146FFF7CCFED4
:104FA000294B1860E9E7204600F00EFE2046FFF787
:104FB00057F8002895D12046FFF7E2F82046FFF782
:104FC0004FF800288DD1636DF3B1636D002B88D14C
:104FD000637B13F0010F84D0606911F0B7FD1B4BA8
:104FE0001A68D38D98427FF67CAF0621164B18685D
:104FF00002F097FC2046FFF733F800287FF471AFEA
:1050000011F096FD60616CE7637B13F0010FDCD15A
:10501000206911F09BFD0D4B1A68938D9842D4D9ED
:105020000521094B186802F07CFC2046FFF718F8B0
:1050300000287FF456AF637B43F00103637311F0E4
:1050400077FD6061C1E700BF082000200420002038
:1050500038B504460D46036AB1F900200287B1F95C
:105060000200608793F89C2102F00602042A01D016
:10507000062A0BD119882A88891A89B20139298010
:105080005A8880B2121A92B2013A6A8093F89C212F
:1050900002F00602022A01D0062A09D1B5F902203F
:1050A000B5F9001069805B889B1A9BB2013B2B808D
:1050B000206AFEF7A7FB206AFEF7BCFB606F18B101
:1050C000626B2B689A4212D1B5F900302386B5F98C
:1050D00002306386237B012B10D02046FFF7DEF8D9
:1050E000B4F93030A386B4F93230E38638BDB5F96F
:1050F0000220B5F9001002F041FDE5E72046FFF778
:1051000057FEEDE7F8B5C36F0BB304460D468A684A
:1051100003EB820133F92260B1F90270AB7B012B02
:1051200016D02046FEF79CFF88B926866786AB7BA3
:10513000012B19D02046FFF7B1F82046FEF790FF6B
:1051400028B9B4F93030A386B4F93230E386F8BD1B
:10515000B0F93430B34203D1B0F93630BB42E0D0BD
:105160002046FFF79BF8DCE72046FFF721FEE4E747
:10517000C068304B1860036A002B59D030B585B039
:10518000FEF744FF2B4B1B685A7B12F0040F03D130
:105190001B6AD3F87031C3B105B030BD1C6A11F081
:1051A000C7FCC4F8A80126E0BDF90C201AB31C6A9C
:1051B00011F0BEFCC4F8A8011DE06946FFF748FFE6
:1051C0001C4B1868FEF722FF65B31A4C694620682D
:1051D000FFF7BCFC9DF80F502068FEF717FF164B39
:1051E00000221A6023689DF80E201A73012AD5D078
:1051F0001A78042AD8D00F4B18680378012BDCD01A
:10520000022B07D0042B09D0032BD9D16946FFF715
:1052100079FFD5E76946FFF7EDF8D1E76946FFF773
:1052200039FACDE70023034A1360034A1360B3E75A
:10523000704700BF042000200820002000B502B302
:105240009446B0F942E0B2F900207244B0F95E3001
:105250009A4206DA9BB21FFA8EFEA3EB0E03ACF85D
:105260000030B0F942E0BCF900207244B0F962307D
:105270009A4206DD9BB21FFA8EFEA3EB0E03ACF83A
:105280000030E9B1B0F940C0B1F900206244B0F992
:105290005C309A4205DA9BB21FFA8CFCA3EB0C033C
:1052A0000B80B0F940C0B1F900206244B0F9603021
:1052B0009A4205DD9BB21FFA8CFCA3EB0C030B801A
:1052C0005DF804FB10B5B0F94640FFF761FC90F8BB
:1052D000292000200CE0204400B2C2F1640303FB4B
:1052E00004F4054B83FB0413E417C4EB631424B2EA
:1052F000002CF0D110BD00BF1F85EB5110B5B0F9E7
:105300004440FFF745FC90F8292000200CE02044A1
:1053100000B2C2F1640303FB04F4054B83FB0413E6
:10532000E417C4EB631424B2002CF0D110BD00BF0D
:105330001F85EB512DE9F04F87B006468A46019252
:105340009B4604F050FA18B9002007B0BDE8F08F72
:10535000814610220021304605F088FF029003B2FA
:10536000059311220021304605F080FF049003B21E
:105370000393304606F0B9FC0746002441F6FF7857
:1053800026E0B5F91A30728B0499521A12B241E034
:10539000EB8A6A8BD21A92B20132C2F3C03101FA9F
:1053A00082F203EB62031BB2F08A029A8118728BBD
:1053B000121A92B2013212B20598121A0398121AF6
:1053C00002EBD272521012FA81F212B222E00134D0
:1053D000BC4237D2B3681B6853F824501E49284694
:1053E00001F00FFB0028F2D14FF48051284601F064
:1053F00001FB0028EBD0B9F1020FC2D0B9F1030FC5
:10540000C6D0B9F1010FE2D1B5F91630F28A02998E
:105410000A4412B25B4499B21BB25345D7DB0198E0
:105420008342D4DC8A1A12B282EAE271A1EBE27101
:1054300089B288EAE873A3EBE8739BB29942C6D2BB
:105440009046C4E741F6FF73984503D0C8F10000C9
:1054500000B27AE7002078E7010004002DE9F04F60
:1054600087B006468A4601929B4604F0B4F918B903
:10547000002007B0BDE8F08F81461222002130469F
:1054800005F0F4FE029003B205931322002130468A
:1054900005F0ECFE049003B20393304606F025FCC1
:1054A0000746002441F6FF7826E0B5F91830328B24
:1054B0000499521A12B241E0AB8A2A8BD21A92B2E4
:1054C0000132C2F3C03101FA82F203EB62031BB274
:1054D000B08A029A8118328B121A92B2013212B239
:1054E0000598121A0398121A02EBD272521012FA8D
:1054F00081F212B222E00134BC4237D2B3681B6899
:1055000053F824501E49284601F07BFA0028F2D1B6
:105510004FF48051284601F06DFA0028EBD0B9F124
:10552000020FC2D0B9F1030FC6D0B9F1010FE2D119
:10553000B5F91430B28A02990A4412B25B4499B2A6
:105540001BB25345D7DB01988342D4DC8A1A12B2CE
:1055500082EAE271A1EBE27189B288EAE873A3EB17
:10556000E8739BB29942C6D29046C4E741F6FF73F6
:10557000984503D0C8F1000000B27AE7002078E730
:105580000100040070B582B00446456D80212846B4
:1055900001F030FA30BB6E4941F6FF7300930A46C2
:1055A00004F15C0013F02BFAB4F95C301BB94EF235
:1055B0000103A4F85C30B4F960301BB941F6FF7305
:1055C000A4F86030B4F95E301BB94EF20103A4F8C0
:1055D0005E30B4F962301BB941F6FF73A4F8623053
:1055E00002B070BD284604F0FEF8022833D003282C
:1055F00045D0012808D04EF20103A4F85E3041F6F0
:10560000FF73A4F8623014E0E98A0131002341F607
:10561000FF7209B22846FFF78DFEA4F85E00EA8A01
:10562000013A002312B24A492846FFF783FEA4F844
:105630006200284604F0CFF8022854D0032866D030
:1056400001283CD04EF20103A4F85C3041F6FF7310
:10565000A4F86030A8E7002341F6FF72B5F91A10EC
:105660002846FFF767FEA4F85E000023B5F91A206C
:1056700037492846FFF75EFEA4F86200D9E7EE8AB4
:105680006B8B9B1B9BB20133C3F3C03202FA83F3D3
:1056900006EB63039EB2711C002341F6FF7209B250
:1056A0002846FFF747FEA4F85E00721E002312B2E0
:1056B00027492846FFF73EFEA4F86200B9E7002319
:1056C00041F6FF72B5F914102846FFF7C7FEA4F89B
:1056D0005C000023B5F914201D492846FFF7BEFEE3
:1056E000A4F8600060E7002341F6FF72B5F91810D6
:1056F0002846FFF7B3FEA4F85C000023B5F9182094
:1057000013492846FFF7AAFEA4F860004CE7AE8ACA
:105710002B8B9B1B9BB20133C3F3C03202FA83F382
:1057200006EB63039EB2711C002341F6FF7209B2BF
:105730002846FFF793FEA4F85C00721E002312B205
:1057400003492846FFF78AFEA4F860002CE700BF53
:1057500001E0FFFF2DE9F04F8BB00446FFF718FA88
:1057600090F828800FFA88FAD4F84C90A38FB4F8F8
:1057700040201344A4F84030E38FB4F8422013448F
:10578000A4F842304FF0000BCDF808B0CDF80CB0C3
:10579000CDF804B0B9F1000F14D1BBF1000F0DD05A
:1057A00094F86830019A62F3030384F86830C4F80F
:1057B00054B00023A4F84030A4F8423058460BB04F
:1057C000BDE8F08F0027ADF82070ADF822704E468E
:1057D0004FF4807507E0001210FB05F52DB230463E
:1057E00006F042FA06468EB16D220021304605F0E1
:1057F0003DFD17FA80F73FB26C220021304605F0DC
:1058000035FD00B20028E6DAFF30E4E7236C0993A7
:1058100017B9B5F5807F0AD079424FF4803292FBF8
:10582000F5F208AB12B209B209A813F00FFBBDF9EB
:105830002420002AB8BF524292B2BDF92630002B74
:10584000B8BF5B429BB29A421DD80123029310213C
:10585000484601F0CFF8C8B94FF48071484601F0CE
:10586000C9F810B9039B002B97D14FF4007148463B
:1058700001F0C0F810B9029B002B8ED1484606F00B
:10588000F3F9814686E701230393E0E7484603F0F6
:105890009AFF10F0010F30D0039E10F0020F2ED0AF
:1058A000039B059310F0040F2CD0029F10F0080FFB
:1058B0002AD0029B0693484603F0ADFF05464846B2
:1058C00003F0B2FF0790484604F028F804904846D9
:1058D00004F0B6F8002D1ADD1FB1BDF9263053458E
:1058E00019DA069BD3B1BDF92620C8F100039A420C
:1058F00014DCCB460C23019310E00026CDE70023F7
:105900000593CFE70027D1E700230693D3E7079B52
:10591000002BE1DC02E0CB460C230193049B002B1F
:1059200010DD1EB1BDF9243053450EDA059B7BB165
:10593000BDF92420C8F100039A4209DCCB460323B9
:10594000019305E00028ECDC02E0CB460323019341
:10595000002D3ADD079B002B39DD049B002B39DD40
:10596000002839DD1EB1BDF92430534537DA059BD7
:105970002BB1BDF92420C8F100039A422FDD1FB1DD
:10598000BDF9263053452ADA069B2BB1BDF92620F6
:10599000C8F100039A4222DD4FF48071484601F0BD
:1059A00029F818B9039B002B7FF4F7AE4FF4007170
:1059B000484601F01FF818B9029B002B7FF4EDAEAA
:1059C000484606F051F98146E4E60027C2E7002385
:1059D0000693C2E70026C3E700230593C2E7039BB3
:1059E0003BB1032294F8683062F3030384F8683013
:1059F000D3E60C22F6E72DE9F84F05460C46904613
:105A00001E469DF828A0202100F0F4FF002800F099
:105A1000C980BAF1030F28D0284603F0E4FE0746F8
:105A2000FFF784F98146BAF1030F23D01022002139
:105A3000284605F01BFC82460FFA80FB112200214C
:105A4000284605F013FC0FFA80FC022F7CD0032FB0
:105A500054D0012F72D000221346002E7ADBB8F109
:105A6000000FC0F28B802046A3E0284603F0B3FE6F
:105A70000746D5E712220021284605F0F7FB8246AB
:105A80000FFA80FB13220021284605F0EFFB0FFAE6
:105A900080FC022F2CD0032F04D0012F22D0002213
:105AA0001346DAE72A8BA98A521A92B2013212B24D
:105AB000A2EB0B02A2EB0C0202EBD2730AEB630324
:105AC00011FA83F31BB2B9F81810B9F81420891A27
:105AD00089B20131C1F3C03000FA81F102EB6102F9
:105AE00012B2BAE7AB8A53441BB2B9F91420B4E737
:105AF0002B8B1B1A1BB2B9F91820AEE76A8BE98A07
:105B0000521A92B2013212B2A2EB0B02A2EB0C02B9
