:020000040800F2
:100000000080012049210308B51E0008B71E000822
:10001000B91E0008BB1E0008BD1E0008000000003D
:10002000000000000000000000000000BF1E0008EB
:10003000C11E000800000000C31E0008C51E000805
:10004000992103089921030899210308992103089C
:10005000992103089921030899210308992103088C
:10006000992103089921030899210308992103087C
:10007000992103089921030899210308992103086C
:10008000992103089921030899210308992103085C
:10009000992103089921030899210308CD1E00081E
:1000A000992103089921030899210308992103083C
:1000B00099210308595A0008992103089921030836
:1000C000992103089921030899210308992103081C
:1000D000992103089921030899210308992103080C
:1000E000E11E0008992103089921030899210308BA
:1000F00099210308992103089921030899210308EC
:1001000099210308992103089921030899210308DB
:1001100099210308992103089921030899210308CB
:1001200099210308992103089921030899210308BB
:1001300099210308992103089921030899210308AB
:10014000992103089921030899210308992103089B
:1001500099210308ED1E000899210308992103083D
:10016000992103089921030899210308992103087B
:1001700099210308992103080000000000000000F5
:080180009921030899210308ED
:1001C00010B5054C237833B9044B13B10448AFF391
:1001D00000800123237010BDE00400200000000017
:1001E0002424030808B5034B1BB103490348AFF3AC
:1001F000008008BD00000000E4040020242403085F
:100200004FF0FF0C1CEAD0521EBF1CEAD15392EAF9
:100210000C0F93EA0C0F6FD01A4480EA010C4002D5
:1002200018BF5FEA41211ED04FF0006343EA50102F
:1002300043EA5111A0FB01310CF00040B1F5000F71
:100240003EBF490041EAD3715B0040EA010062F120
:100250007F02FD2A1DD8B3F1004F40EBC25008BF0A
:1002600020F00100704790F0000F0CF0004C08BF28
:1002700049024CEA502040EA51207F3AC2BFD2F1F5
:10028000FF0340EAC250704740F400004FF0000303
:10029000013A5DDC12F1190FDCBF00F0004070473D
:1002A000C2F10002410021FA02F1C2F1200200FA7B
:1002B00002FC5FEA310040F1000053EA4C0308BF42
:1002C00020EADC70704792F0000F00F0004C02BF93
:1002D000400010F4000F013AF9D040EA0C0093F00E
:1002E000000F01F0004C02BF490011F4000F013B68
:1002F000F9D041EA0C018FE70CEAD15392EA0C0FD6
:1003000018BF93EA0C0F0AD030F0004C18BF31F040
:10031000004CD8D180EA010000F00040704790F016
:10032000000F17BF90F0004F084691F0000F91F0BA
:10033000004F14D092EA0C0F01D142020FD193EA80
:100340000C0F03D14B0218BF084608D180EA010008
:1003500000F0004040F0FE4040F40000704740F0E4
:10036000FE4040F44000704781F0004102E000BFD1
:1003700083F0004330B54FEA41044FEA430594EA65
:10038000050F08BF90EA020F1FBF54EA000C55EAA0
:10039000020C7FEA645C7FEA655C00F0E2804FEA71
:1003A0005454D4EB5555B8BF6D420CDD2C4480EA53
:1003B000020281EA030382EA000083EA010180EA83
:1003C000020281EA0303362D88BF30BD11F0004FD1
:1003D0004FEA01314FF4801C4CEA113102D0404207
:1003E00061EB410113F0004F4FEA03334CEA133342
:1003F00002D0524263EB430394EA050F00F0A7805A
:10040000A4F10104D5F1200E0DDB02FA0EFC22FA54
:1004100005F2801841F1000103FA0EF2801843FA48
:1004200005F359410EE0A5F120050EF1200E012A39
:1004300003FA0EFC28BF4CF0020C43FA05F3C01877
:1004400051EBE37101F0004507D54FF0000EDCF1F0
:10045000000C7EEB00006EEB0101B1F5801F1BD399
:10046000B1F5001F0CD349085FEA30004FEA3C0C9D
:1004700004F101044FEA445212F5800F80F09A8093
:10048000BCF1004F08BF5FEA500C50F1000041EB97
:10049000045141EA050130BD5FEA4C0C404141EB9B
:1004A0000101013C28BFB1F5801FE9D291F0000F96
:1004B00004BF01460020B1FA81F308BF2033A3F145
:1004C0000B03B3F120020CDA0C3208DD02F1140C3C
:1004D000C2F10C0201FA0CF021FA02F10CE002F177
:1004E0001402D8BFC2F1200C01FA02F120FA0CFC70
:1004F000DCBF41EA0C019040E41AA2BF01EB0451B9
:10050000294330BD6FEA04041F3C1CDA0C340EDCB6
:1005100004F11404C4F1200220FA04F001FA02F3F9
:1005200040EA030021FA04F345EA030130BDC4F1B7
:100530000C04C4F1200220FA02F001FA04F340EAAC
:100540000300294630BD21FA04F0294630BD94F05D
:10055000000F83F4801306BF81F480110134013D44
:100560004EE77FEA645C18BF7FEA655C29D094EAB5
:10057000050F08BF90EA020F05D054EA000C04BF33
:100580001946104630BD91EA030F1EBF002100201E
:1005900030BD5FEA545C05D14000494128BF41F0BD
:1005A000004130BD14F580043CBF01F5801130BD21
:1005B00001F0004545F0FE4141F470014FF00000AC
:1005C00030BD7FEA645C1ABF194610467FEA655C5D
:1005D0001CBF0B46024650EA013406BF52EA0335FF
:1005E00091EA030F41F4002130BD00BF90F0000FED
:1005F00004BF0021704730B54FF4806404F1320429
:100600004FF000054FF0000150E700BF90F0000FE1
:1006100004BF0021704730B54FF4806404F1320408
:1006200010F0004548BF40424FF000013EE700BFD8
:1006300042004FEAE2014FEA31014FEA02701FBF68
:1006400012F07F4393F07F4F81F06051704732F09A
:100650007F4208BF704793F07F4F04BF41F40021F1
:10066000704730B54FF4607401F0004521F000414F
:100670001CE700BF50EA010208BF704730B54FF0D9
:1006800000050AE050EA010208BF704730B511F0DA
:10069000004502D5404261EB41014FF4806404F112
:1006A00032045FEA915C3FF4D8AE4FF003025FEA98
:1006B000DC0C18BF03325FEADC0C18BF033202EB1C
:1006C000DC02C2F1200300FA03FC20FA02F001FA76
:1006D00003FE40EA0E0021FA02F11444BDE600BF19
:1006E00070B54FF0FF0C4CF4E06C1CEA11541DBFC8
:1006F0001CEA135594EA0C0F95EA0C0F00F0DEF893
:100700002C4481EA030621EA4C5123EA4C5350EA77
:10071000013518BF52EA033541F4801143F48013C8
:1007200038D0A0FB02CE4FF00005E1FB02E506F059
:100730000042E0FB03E54FF00006E1FB03569CF0AE
:10074000000F18BF4EF0010EA4F1FF04B6F5007FB4
:1007500064F5407404D25FEA4E0E6D4146EB060626
:1007600042EAC62141EA55514FEAC52040EA5E50AF
:100770004FEACE2EB4F1FD0C88BFBCF5E06F1ED859
:10078000BEF1004F08BF5FEA500E50F1000041EB90
:10079000045170BD06F0004646EA010140EA02003D
:1007A00081EA0301B4EB5C04C2BFD4EB0C0541EA5F
:1007B000045170BD41F480114FF0000E013C00F374
:1007C000AB8014F1360FDEBF002001F0004170BD98
:1007D000C4F10004203C35DA0C341BDC04F11404B1
:1007E000C4F1200500FA05F320FA04F001FA05F23D
:1007F00040EA020001F0004221F0004110EBD3700A
:1008000021FA04F642EB06015EEA430E08BF20EA35
:10081000D37070BDC4F10C04C4F1200500FA04F3D8
:1008200020FA05F001FA04F240EA020001F000416A
:1008300010EBD37041F100015EEA430E08BF20EADD
:10084000D37070BDC4F1200500FA05F24EEA020E25
:1008500020FA04F301FA05F243EA020321FA04F054
:1008600001F0004121FA04F220EA020000EBD3700B
:100870005EEA430E08BF20EAD37070BD94F0000F0B
:100880000FD101F00046400041EB010111F4801F3F
:1008900008BF013CF7D041EA060195F0000F18BFF0
:1008A000704703F00046520043EB030313F4801F2C
:1008B00008BF013DF7D043EA0603704794EA0C0FE6
:1008C0000CEA135518BF95EA0C0F0CD050EA4106FC
:1008D00018BF52EA4306D1D181EA030101F0004179
:1008E0004FF0000070BD50EA410606BF10461946A1
:1008F00052EA430619D094EA0C0F02D150EA0136AD
:1009000013D195EA0C0F05D152EA03361CBF1046ED
:1009100019460AD181EA030101F0004141F0FE418C
:1009200041F470014FF0000070BD41F0FE4141F410
:10093000780170BD70B54FF0FF0C4CF4E06C1CEA10
:1009400011541DBF1CEA135594EA0C0F95EA0C0FC5
:1009500000F0A7F8A4EB050481EA030E52EA033580
:100960004FEA013100F088804FEA03334FF08055A1
:1009700045EA131343EA12634FEA022245EA1115CE
:1009800045EA10654FEA00260EF000419D4208BF7F
:10099000964244F1FD0404F5407402D25B084FEA2C
:1009A0003202B61A65EB03055B084FEA32024FF4D8
:1009B00080104FF4002CB6EB020E75EB030E22BF35
:1009C000B61A754640EA0C005B084FEA3202B6EBF5
:1009D000020E75EB030E22BFB61A754640EA5C00A4
:1009E0005B084FEA3202B6EB020E75EB030E22BF34
:1009F000B61A754640EA9C005B084FEA3202B6EB35
:100A0000020E75EB030E22BFB61A754640EADC00F3
:100A100055EA060E18D04FEA051545EA16754FEA55
:100A200006164FEAC30343EA52734FEAC2025FEA73
:100A30001C1CC0D111F4801F0BD141EA00014FF002
:100A400000004FF0004CB6E711F4801F04BF0143D3
:100A50000020B4F1FD0C88BFBCF5E06F3FF6AFAEEF
:100A6000B5EB030C04BFB6EB020C5FEA500C50F17F
:100A7000000041EB045170BD0EF0004E4EEA113102
:100A800014EB5C04C2BFD4EB0C0541EA045170BD09
:100A900041F480114FF0000E013C90E645EA060E4D
:100AA0008DE60CEA135594EA0C0F08BF95EA0C0F7B
:100AB0003FF43BAF94EA0C0F0AD150EA01347FF4C3
:100AC00034AF95EA0C0F7FF425AF104619462CE79A
:100AD00095EA0C0F06D152EA03353FF4FDAE1046FD
:100AE000194622E750EA410618BF52EA43067FF44E
:100AF000C5AE50EA41047FF40DAF52EA43057FF4DE
:100B0000EBAE12E74FF0FF3C06E000BF4FF0010CE8
:100B100002E000BF4FF0010C4DF804CD4FEA410C4C
:100B20007FEA6C5C4FEA430C18BF7FEA6C5C1BD019
:100B300001B050EA410C0CBF52EA430C91EA030F9A
:100B400002BF90EA020F0020704710F1000F91EAF7
:100B5000030F58BF994208BF90422CBFD8176FEAC5
:100B6000E37040F0010070474FEA410C7FEA6C5C93
:100B700002D150EA013C07D14FEA430C7FEA6C5C9A
:100B8000D6D152EA033CD3D05DF8040B704700BFC6
:100B90008446104662468C461946634600E000BF14
:100BA00001B5FFF7B7FF002848BF10F1000F01BDE6
:100BB0004DF808EDFFF7F4FF0CBF012000205DF8B1
:100BC00008FB00BF4DF808EDFFF7EAFF34BF012036
:100BD00000205DF808FB00BF4DF808EDFFF7E0FFCF
:100BE00094BF012000205DF808FB00BF4DF808ED20
:100BF000FFF7CEFF94BF012000205DF808FB00BF87
:100C00004DF808EDFFF7C4FF34BF012000205DF868
:100C100008FB00BF4FEA410212F5001215D211D5B0
:100C20006FF47873B3EB625212D94FEAC12343F0E9
:100C3000004343EA505311F0004F23FA02F018BF6B
:100C4000404270474FF00000704750EA013005D134
:100C500011F0004008BF6FF0004070474FF00000F7
:100C6000704700BF4A0011D212F5001211D20DD503
:100C70006FF47873B3EB62520ED44FEAC12343F0A2
:100C8000004343EA505323FA02F070474FF000004C
:100C9000704750EA013002D14FF0FF3070474FF0FB
:100CA000000070474FEA4102B2F1E04324BFB3F5C0
:100CB000001CDCF1FE5C0DD901F0004C4FEAC002D3
:100CC0004CEA5070B2F1004F40EB830008BF20F0B7
:100CD0000100704711F0804F21D113F13872BCBF71
:100CE00001F00040704741F480114FEA5252C2F1C6
:100CF0001802C2F1200C10FA0CF320FA02F018BF0F
:100D000040F001004FEAC1234FEAD32303FA0CFC61
:100D100040EA0C0023FA02F34FEA4303CCE77FEAF0
:100D2000625307D150EA01331EBF4FF0FE4040F43A
:100D30004000704701F0004040F0FE4040F40000E9
:100D4000704700BF4FF0FF3C06E000BF4FF0010CC2
:100D500002E000BF4FF0010C4DF804CD4FEA400215
:100D60004FEA41037FEA226C18BF7FEA236C11D05F
:100D700001B052EA530C18BF90EA010F58BFB2EB12
:100D8000030088BFC81738BF6FEAE17018BF40F092
:100D9000010070477FEA226C02D15FEA402C05D146
:100DA0007FEA236CE4D15FEA412CE1D05DF8040BCB
:100DB000704700BF844608466146FFE70FB5FFF75E
:100DC000C9FF002848BF10F1000F0FBD4DF808ED16
:100DD000FFF7F4FF0CBF012000205DF808FB00BF07
:100DE0004DF808EDFFF7EAFF34BF012000205DF861
:100DF00008FB00BF4DF808EDFFF7E0FF94BF0120AE
:100E000000205DF808FB00BF4DF808EDFFF7D2FFAA
:100E100094BF012000205DF808FB00BF4DF808EDED
:100E2000FFF7C8FF34BF012000205DF808FB00BFBA
:100E300042000ED2B2F1FE4F0BD34FF09E03B3EB44
:100E4000126209D44FEA002343F0004323FA02F070
:100E500070474FF00000704712F1610F01D142025C
:100E600002D14FF0FF3070474FF00000704700BFD5
:100E700053B94AB9002908BF00281CBF4FF0FF3101
:100E80004FF0FF3000F074B9ADF1080C6DE904CEFD
:100E900000F006F8DDF804E0DDE9022304B0704755
:100EA0002DE9F047089E0D4604468846002B4DD19B
:100EB0008A42944668D9B2FA82F252B101FA02F338
:100EC000C2F1200120FA01F10CFA02FC41EA030808
:100ED00094404FEA1C45210CB8FBF5FE1FFA8CF735
:100EE00005FB1E8341EA03430EFB07F199420BD930
:100EF0001CEB03030EF1FF3080F01E81994240F29B
:100F00001B81AEF1020E63445B1AA4B2B3FBF5F091
:100F100005FB103344EA034400FB07F7A7420AD954
:100F20001CEB040400F1FF3380F00881A74240F27B
:100F3000058164440238E41B40EA0E4000211EB1E2
:100F4000D4400023C6E90043BDE8F0878B4208D9AE
:100F5000002E00F0EE800021C6E900050846BDE83D
:100F6000F087B3FA83F100294AD1AB4202D382421F
:100F700000F2F980841A65EB030301209846002EE5
:100F8000E2D0C6E90048DFE702B9FFDEB2FA82F23A
:100F9000002A40F09180A1EB0C054FEA1C471FFA94
:100FA0008CFE0121B5FBF7F307FB1350250C45EA36
:100FB00000450EFB03F0A84208D91CEB050503F120
:100FC000FF3802D2A84200F2CB8043462D1AA4B2C9
:100FD000B5FBF7F007FB105544EA05440EFB00FE95
:100FE000A64508D91CEB040400F1FF3502D2A64542
:100FF00000F2BB802846A4EB0E0440EA03409EE7C3
:10100000C1F120078B4022FA07FC4CEA030C20FABE
:1010100007F405FA01F31C43FD404FEA1C4900FAAE
:1010200001F3B5FBF9F8200C1FFA8CFE09FB1855EB
:1010300040EA054508FB0EF0A84202FA01F20BD97E
:101040001CEB050508F1FF3A80F08880A84240F2C9
:101050008580A8F1020865442D1AA4B2B5FBF9F009
:1010600009FB105544EA054500FB0EFEAE4508D9C4
:101070001CEB050500F1FF346CD2AE456AD902388D
:10108000654440EA0840A0FB0294A5EB0E05A5428A
:10109000C846A64656D353D05EB1B3EB080265EB03
:1010A0000E0505FA07F722FA01F3CD401F43C6E902
:1010B00000750021BDE8F087C2F1200320FA03F19A
:1010C0000CFA02FC25FA03F395400D434FEA1C4746
:1010D0001FFA8CFEB3FBF7F107FB11302B0C43EA30
:1010E000004301FB0EF0984204FA02F408D91CEB0D
:1010F000030301F1FF382FD298422DD902396344FE
:101100001B1AADB2B3FBF7F007FB103345EA0345FA
:1011100000FB0EF3AB4208D91CEB050500F1FF38CC
:1011200016D2AB4214D902386544ED1A40EA0141A7
:1011300038E73146304607E78646E5E61846FAE6E0
:101140004B45A9D2B9EB020864EB0C0E0138A3E7BA
:101150004046EAE7204694E74146D1E7D0467BE7A0
:10116000023B654432E7084609E76444023842E737
:10117000704700BF000000000000000000000000F9
:10118000A2EB0300704700BF02780B78012A28BF4A
:101190009A42F5D16DE9044540EA0104CDE90267C0
:1011A0006FF0000C4FEA447212B380EA010414F0AD
:1011B000070F6AD100F0070420F0070004F00305D0
:1011C00021F007014FEAC505F0E8042314F0040FED
:1011D000F1E804670CFA05F462EA040266EA040620
:1011E0000AD063EA0403624667EA0407664603E03E
:1011F000F0E80423F1E8046782FA4CF582EA060479
:10120000A4FA8CF46CBB83FA4CF583EA0705A5FAC3
:101210008CF595B950E9022351E9026782FA4CF541
:1012200082EA0604A4FA8CF483FA4CF583EA0705F3
:10123000A5FA8CF52543DBD09CB92DBAB5FA85F417
:1012400024F0070427FA04F1DDE9026723FA04F326
:1012500003F0FF0001F0FF01FDE80445A0EB0100F1
:10126000704724BAB4FA84F424F0070426FA04F18F
:10127000DDE9026722FA04F202F0FF0001F0FF014B
:10128000FDE80445A0EB0100704714F0030F3CD1CA
:1012900010F0030428D150F8082B51F8083B82FACB
:1012A0004CF582EA0305A5FA8CF55DB950F8042CDB
:1012B00051F8043C82FA4CF582EA0305A5FA8CF554
:1012C000002DE8D02DBAB5FA85F424F0070423FAEE
:1012D00004F122FA04F202F0FF0001F0FF01FDE840
:1012E0000445A0EB010070474FEAC40420F003005E
:1012F00050F8082B21F0030151F8083B0CFA04F4D4
:1013000062EA040263EA0403C9E710F003041AD096
:10131000A1EB040120F00300E40750F8042B06D0F1
:101320000FD28B785FFAA2F4E41A06D12BB1CB78F6
:101330005FFAB2F4E41A00D11BB920465DF8104BF5
:10134000704701F1040150F8042BCC0721F0030190
:1013500051F8043B48D824D222F07F4482FA4CF55D
:1013600094EA1325A5FA8CF50AD165B951F8043B26
:1013700084EA0204B4EB036F0ED150F8042BEBE7C0
:101380004FEA132355E035F07F454DD10878FDE84D
:101390000445C0F1000070474FEA126203F0FF03FA
:1013A00047E002EA1C4482FA4CF594EA1345A5FA98
:1013B0008CF50AD165B951F8043B84EA0204B4EB18
:1013C000034F0CD150F8042BEBE74FEA134330E006
:1013D00015EA1C4528D10B884FEA124229E04FEA52
:1013E000124203EA1C4324E002F0FF0482FA4CF5A7
:1013F00094EA1365A5FA8CF50AD165B951F8043B56
:1014000084EA0204B4EB032F09D150F8042BEBE774
:101410004FEA13630DE015F0FF0F05D10B684FEA9B
:10142000122223F07F4304E04FF00000FDE8044562
:10143000704712BA1BBA82FA4CF482EA0304A4FA87
:101440008CF5B5FA85F402FA04F203FA04F34FEAD4
:101450001260FDE80445A0EB136070470000000037
:10146000000000000000000000000000000000007C
:10147000000000000000000000000000000000006C
:1014800090F800F06DE9024520F007016FF0000CC4
:1014900010F0070491F820F040F049804FF000046C
:1014A0006FF00700D1E9002391F840F000F1080047
:1014B00082FA4CF2A4FA8CF283FA4CF3A2FA8CF37F
:1014C0004BBBD1E9022382FA4CF200F10800A4FAE6
:1014D0008CF283FA4CF3A2FA8CF3E3B9D1E904233A
:1014E00082FA4CF200F10800A4FA8CF283FA4CF371
:1014F000A2FA8CF37BB9D1E9062301F1200182FA2B
:101500004CF200F10800A4FA8CF283FA4CF3A2FA30
:101510008CF3002BC6D0002A04BF04301A4612BA3E
:10152000B2FA82F2FDE8024500EBD2007047D1E941
:10153000002304F00305C4F100004FEAC50514F0D0
:10154000040F91F840F00CFA05F562EA05021CBFA1
:1015500063EA050362464FF00004A9E708B50E48A8
:101560000E4B03604FF44033436000238360C3603D
:101570000361436143760122C26180F820304362F7
:101580008362C362037680F83030436380F838307A
:1015900000F014FD08BD00BFFC0400200000045052
:1015A00010B586B0009006230193002302937F229A
:1015B0000392042204920593084C6946204600F0E9
:1015C0008BFE204601F04EF90A21204600F0F8FD7E
:1015D000204600F07DFE80B206B010BDFC04002065
:1015E000F8B507460E460024254608E03846FFF7C2
:1015F000D7FF0544052003F091FC0134E4B2B44266
:10160000F4D3B5FBF6F080B2F8BDF8B504460E464B
:10161000154604F0ADF8702004F07AF904F0F8F8FB
:1016200038B90746204604F073F904F0F1F83C4657
:101630000AE004F0C5F801270AE0305D04F068F91B
:1016400004F0E6F80134E4B2AC42F6D304F0B8F8A2
:101650003846F8BDF8B506460D4604F089F8712005
:1016600004F056F904F0D4F810B90746044609E02E
:1016700004F0A6F8012711E0002004F083F93055AA
:101680000134E4B2AC4207D26B1E9C42F4D001207C
:1016900004F078F93055F3E704F092F83846F8BDD5
:1016A00000B585B00023ADF80C30022203A9AC20B0
:1016B000FFF7ABFF20B14FF07E5005B05DF804FBA3
:1016C000062101A8FFF7C6FFE0B99DF807301B040B
:1016D00003F470239DF8080043EA00239DF80900F5
:1016E0001843FEF793FF0022084BFEF7F9FF002294
:1016F000074BFEF7F5FF0022064BFEF739FEFFF71A
:10170000D1FADAE74FF07E50D7E700BF000069401A
:101710000000B03E0000494000B585B00023ADF8A0
:101720000C30022203A9AC20FFF76FFF20B14FF06D
:101730007E5005B05DF804FB062101A8FFF78AFF83
:10174000C0B99DF805009DF806301B0143EA00333F
:101750009DF8070000F0F0001843FEF757FF002245
:10176000064BFEF7BDFF0022054BFEF7B9FFFFF762
:1017700099FADEE74FF07E50DBE700BF00005940EA
:101780000000B03E10B582B00023ADF8043003F085
:10179000AFFF022201A9A820FFF737FF18B10124EB
:1017A000204602B010BD4FF4967003F0B7FB08233B
:1017B0008DF8043000238DF80530022201A9E120C4
:1017C000FFF723FF044608B10124E9E74FF49670C0
:1017D00003F0A4FBE4E70000F0B58DB0002407940B
:1017E000089409940A940B94414BDA6C42F08002FD
:1017F000DA64DA6C02F080020192019ADA6C42F04B
:101800000402DA64DA6C02F004020292029ADA6CE0
:1018100042F00102DA64DA6C02F001020392039AE8
:10182000DA6C42F00202DA64DA6C02F0020204922C
:10183000049ADA6C42F01002DA64DA6C02F01002F8
:101840000592059ADA6C42F00802DA64DB6C03F068
:1018500008030693069B224603214FF0904001F0B7
:1018600086FB244F22460421384601F080FB224E9D
:1018700001228021304601F07AFB032307930125E2
:10188000089509950A9507A94FF0904001F062FA72
:1018900004230793089509950A9507A9384601F08E
:1018A00059FA80230793089509950A9507A93046A8
:1018B00001F050FA4FF4E06307934FF48813089354
:1018C000099407A90D4801F045FA22462146172040
:1018D00001F0F0F8172001F025F9224621462820D2
:1018E00001F0E8F8282001F01DF90DB0F0BD00BFAF
:1018F000001002400004004800100048000C00489E
:1019000008B507F06BF904F0DBF804F01DF930F0CE
:101910008BFA08BD72B6FEE708B51048104B03609D
:101920004FF482734360002383604FF4E062C2602F
:1019300002220261012242614FF400728261C3619E
:101940000362436283620722C2620363436302F05D
:10195000AEFC00B908BDFFF7DDFF00BF0C0600209C
:10196000003C004000B583B0164B9A6C42F0020276
:101970009A649B6C03F002030193019B1248134B82
:101980000360002343604FF4804282604022C260C3
:10199000802202614FF4807242614FF48062826162
:1019A000C361036201F0F0F850B900220121452023
:1019B00001F080F8452001F0B5F803B05DF804FBB4
:1019C000FFF7A8FF00100240C40500208004024079
:1019D00000B589B000230493059306930793019300
:1019E000029303931248134A0260436083604FF6E8
:1019F000FF72C2600361836102F072FF90B94FF41D
:101A00008053049304A90A4802F0A6FF60B900239A
:101A10000193039301A9064803F01EF830B909B0F9
:101A20005DF804FBFFF776FFFFF774FFFFF772FF27
:101A3000700600200004004008B50A480A4B036005
:101A40004FF4E133436000238360C36003610C22E1
:101A500042618361C361036203F05AF900B908BDB2
:101A6000FFF758FFC00600200038014000B58BB0DA
:101A7000002307930893099301930293039304931C
:101A8000059306931C481D4A026043608360C3604F
:101A9000036104224261037643760122C26180F829
:101AA00020308362C36280F83030436380F838307E
:101AB00000F084FAD0B90023079307A90E4800F07C
:101AC0004BFFA8B90E4B0193062302930023039307
:101AD0007F2204920422059206930DEB0201064830
:101AE00000F0FAFB30B90BB05DF804FBFFF712FF12
:101AF000FFF710FFFFF70EFF600500200000045005
:101B00000200300400B597B04422002105A830F04F
:101B100069FB0023009301930293039304934FF412
:101B2000007001F041FA20BB012205924FF480338E
:101B3000069302230F9303211091119228221292EF
:101B40000722139214930423159305A801F016FBA2
:101B500088B90F2300930323019300230293039377
:101B600004930421684601F017FE30B917B05DF800
:101B700004FBFFF7CFFEFFF7CDFEFFF7CBFE000023
:101B80002DE9F04182B000F0E3F9FFF7BBFFFFF76A
:101B900023FEFFF7C1FEFFF7E5FEFFF719FFFFF792
:101BA0004BFFFFF763FF41F63F710A2003F020FF70
:101BB000502003F08BF9FFF7A3FEFFF7E3FDFFF7DB
:101BC000CDFC00251AE05A4B4FF61F021A80002266
:101BD00001214FF0904001F0CAF9012202214FF09B
:101BE000904001F0C4F94FF47A7030F063FA0A20A3
:101BF00003F094F90135EDB21CF0A2FB4D4B0193BB
:101C0000102400942346C822A0211E2003F0F6FBD6
:101C100014214948FFF7E4FC024600230193009495
:101C20000423A021AE2003F097FB444BA3FB052324
:101C3000DB0803EB8303A5EB430313F0FF0FD6D1BF
:101C4000FFF72EFD3E4F3860FFF766FDDFF8F480AA
:101C5000C8F8000023462022B921782003F088FA32
:101C60003868FFF7E5F80246264600940223B921BA
:101C7000802003F02DFB34493868FEF7C1FAFFF7E6
:101C8000D7F82E4CA4FB0023DB0803EB830200965D
:101C90000223A0EB4202B921982003F019FB33463E
:101CA0002E22B921912003F063FA33462E22CD2152
:101CB000912003F05DFAD8F80000FFF7B9F802466A
:101CC00000960223CD21802003F002FB1E49D8F8A4
:101CD0000000FEF795FAFFF7ABF8A4FB0034E40828
:101CE00004EB840400960223A0EB4402CD2198204B
:101CF00003F0EEFA154B0193009602230422CD2146
:101D0000AA2003F07BFB12493868FFF787F8002808
:101D10007FF459AF0F49D8F80000FFF761F80028A9
:101D20007FF451AF024B4FF4FC621A805FE700BFB3
:101D30001C070020482403080800900CCDCCCCCC14
:101D400010070020BC060020000020415C2403088E
:101D500000000C420000F04182B00A4B1A6E42F0C3
:101D600001021A661A6E02F001020092009A9A6D40
:101D700042F080529A659B6D03F080530193019B62
:101D800002B070470010024010B5AAB0044600210E
:101D900025912691279128912991882203A830F036
:101DA00021FA22681E4B9A4201D02AB010BD4FF48E
:101DB000804303934FF08053219303230493012323
:101DC0000593082306930723079302230893099397
:101DD0004FF080730A9303A801F02AFFE8B9114B72
:101DE000DA6C42F40052DA64DA6C02F400520192C6
:101DF000019ADA6C42F00402DA64DB6C03F004034B
:101E00000293029B012325930B2326930023279300
:101E100025A9054800F09EFFC7E7FFF77BFDDEE739
:101E200000000450001002400008004810B5AAB09D
:101E300004460021259126912791289129918822F5
:101E400003A830F0CFF92268184B9A4201D02AB08B
:101E500010BD0123039303A801F0EAFE18BB144B45
:101E60001A6E42F480421A661A6E02F4804201929F
:101E7000019ADA6C42F00102DA64DB6C03F00103D0
:101E80000293029B4FF4E0632593022326930023E1
:101E90002793032328930723299325A94FF09040E4
:101EA00000F058FFD3E7FFF735FDD8E700380140D1
:101EB00000100240FEE7FEE7FEE7FEE7FEE77047A0
:101EC0007047704708B500F053F808BD08B54FF4E7
:101ED000807001F053F84FF4007001F04FF808BD26
:101EE00008B54FF4806001F049F808BD08B5024814
:101EF00000F0CEFE08BD00BFC40500207047000002
:101F0000104B1B780BB90120704710B504464FF4F5
:101F10007A70B0FBF3F30C4A1068B0FBF3F000F0FA
:101F20000FFE68B90F2C01D901200AE000222146DA
:101F30004FF0FF3000F0BEFD044B1C60002000E0BD
:101F4000012010BD04000020000000200800002037
:101F500010B5032000F09CFD0F20FFF7D1FF10B15A
:101F60000124204610BD0446FFF7F6FEF9E7000005
:101F7000034B1B78034A11680B441360704700BF82
:101F80000400002014070020014B1868704700BFB0
:101F90001407002038B50446FFF7F6FF0546B4F1F4
:101FA000FF3F02D0044B1B781C44FFF7EDFF401BA2
:101FB000A042FAD338BD00BF0400002030B583B082
:101FC00000230193002800F0EB800446436D13B317
:101FD00023689A6812F0005F05D09A6822F02042C8
:101FE00022F03F029A602268936813F0805F1FD14D
:101FF000936823F0104323F03F0343F08053936032
:10200000684B1B689B09684AA2FB03239B090133A9
:102010005B00019309E0FFF7B7FE0023A36584F896
:102020005030D5E7019B013B0193019B002BF9D177
:102030002268936813F0805F40F08980636D43F0FD
:1020400010036365A36D43F00103A365012093684A
:1020500013F0040300D00123616D11F0100F40F064
:102060009880002B40F09580636D23F4817343F0DA
:1020700002036365936813F0010F1BD14B4B9A6801
:1020800012F0010200D00122494B9B6813F00103BA
:1020900000D001231343474A926812F0010200D096
:1020A0000122134306D1636843498A6822F47C12F3
:1020B00013438B60627E636B43EA4233E2681343EF
:1020C000A268134394F8202043EA0243012A40D037
:1020D000A26A22B102F47072E16A0A4313432168D2
:1020E000CD68364A2A401343CB6021688B6813F0D1
:1020F000040300D001238A6812F0080200D00122F4
:10210000B3B9AAB9227E94F830305B0043EA823238
:10211000CB6823F4804323F002031343CB6094F88D
:102120003830012B1AD02268136923F001031361A0
:102130002369012B24D02268136B23F00F03136350
:10214000636D23F0030343F00103636526E0002081
:102150007DE7626A013A43EA4243B9E721680B69C5
:1021600023F4FF6323F00403E26B256C2A43656CC0
:102170002A43A56C2A43134343F001030B61D7E7BD
:1021800021680B6B23F00F03E269013A13430B63E1
:10219000D6E7636D43F010036365012003B030BDE3
:1021A0000120FBE700000020632D3E0500000450E5
:1021B00000010450000204500003045007C0F0FF67
:1021C0002DE9F04104460E463F4B9F6807F01F077C
:1021D0004569082D11D057B1052F08D0092F06D019
:1021E000394B9B6813F4604F2CD1042505E023681C
:1021F000DB6813F0010F1FD10425FFF7C5FE8046F1
:1022000023681A682A4223D1B6F1FF3FF8D0FFF7BE
:10221000BBFEA0EB0800B04201D8002EF0D123682D
:102220001B682B42ECD1636D43F00403636500230C
:1022300084F85030032042E0636D43F0200363656F
:1022400001203CE0436D43F020034365012036E06C
:10225000626D42F400726265DA6812F4406F11D167
:10226000627E7AB91A6812F0080F0BD0626D22F400
:1022700080726265626D12F4805F03D1626D42F01C
:1022800001026265114A934209D01A46934209D06D
:1022900047B1052F06D0092F04D0D26803E0A2F57C
:1022A0008072F3E7DA68082D06D012F4804F08D167
:1022B0000C221A60002002E008221A600020BDE80B
:1022C000F0810020FBE700BF000304500001045030
:1022D0000368186C70470000F0B583B000220192CB
:1022E00090F85020012A00F045820346012280F830
:1022F00050200268926812F0040F09D0426D42F03B
:10230000200242650120002283F8502003B0F0BD76
:102310004A68052A08D8023A032A68D8DFE802F09A
:10232000025D60630C224A601D684C683035220AE9
:10233000920002F00C02A85804F01F0E1F2404FAA9
:102340000EF420EA04000C68C4F3846C0CFA0EFC52
:1023500040EA0C00A8501C68A26812F0040200D0E9
:102360000122A06810F0080000D001200AB900285E
:1023700040D01868826812F0010F17D10A68CD6842
:10238000D0F8B040C2F3120C24EA0C0405F0180C8B
:10239000AD4D25FA0CF52A40C2F312022243C0F8D3
:1023A000B020C868A94A904200F0B9800A68A849DC
:1023B0000A4200F0DB81A749896801F0E074A64871
:1023C000824200F07D81A548824200F0A481A448A9
:1023D000824200F0B881002095E712224A60A3E70C
:1023E00018224A60A0E74FF480724A609CE70622F8
:1023F0004A6099E70E688D681434720E920002F0FC
:102400000402A058C6F3045C072606FA0CF620EA7C
:10241000060005FA0CF52843A05048691C68E268DC
:10242000C2F3C102520000FA02F20D69042D0ED06F
:102430000E68603454F825708A48384006F0F84633
:102440003243104340F0004044F8250091E7226EEB
:10245000206EC0F384600A68C2F3120585BBC2F324
:102460008462904234D01C68626E606EC0F38460F7
:102470000A68C2F3120585BBC2F38462904234D06D
:102480001C68A26EA06EC0F384600A68C2F31205D5
:1024900085BBC2F38462904234D01C68E26EE06E69
:1024A000C0F384600A68C2F3120585BBC2F384627C
:1024B00090427FF45EAFE26E22F00042E26658E79F
:1024C00092FAA2F212B1B2FA82F2CAE72022C8E767
:1024D000226E22F000422266C5E792FAA2F212B101
:1024E000B2FA82F2CAE72022C8E7626E22F0004206
:1024F0006266C5E792FAA2F212B1B2FA82F2CAE7B4
:102500002022C8E7A26E22F00042A266C5E792FA36
:10251000A2F212B1B2FA82F2CAE72022C8E71C681E
:102520000A68C2F31205002D39D1900E013000F077
:102530001F0009288CBF00200120002867D0002D33
:102540003CD1900E0130800600F0F840002D41D1C2
:10255000960E013606F01F0C012606FA0CF63043E3
:10256000002D46D1920E013202F01F0202EB420210
:1025700012050243886804F11406550EAD0005F0FB
:1025800004057459C2F304524FF0070C0CFA02FC14
:1025900024EA0C0C90404CEA0000705106E792FAD5
:1025A000A2F048B1B0FA80F0013000F01F00092815
:1025B0008CBF00200120C0E72020F5E792FAA2F0AE
:1025C00030B1B0FA80F00130800600F0F840BDE78D
:1025D0002020F8E792FAA2F64EB1B6FA86F6013656
:1025E00006F01F064FF0010C0CFA06F6B7E720269E
:1025F000F5E792FAA2F242B1B2FA82F2013202F0A7
:102600001F0202EB42021205B3E72022F6E75DBB90
:10261000900E0130800600F0F8408DBB960E01361A
:1026200006F01F0C012606FA0CF63043BDBB920ED5
:10263000013202F01F0202EB42021E3A120542F082
:102640000072024396E700BFFFFF070000007F40D3
:102650000000088000030450000052C7000084CB33
:102660000100008000F0FF0392FAA2F030B1B0FA4E
:1026700080F00130800600F0F840CEE72020F8E737
:1026800092FAA2F64EB1B6FA86F6013606F01F06A9
:102690004FF0010C0CFA06F6C7E72026F5E792FA90
:1026A000A2F25AB1B2FA82F2013202F01F0202EB38
:1026B00042021E3A120542F00072C2E72022F3E7FE
:1026C00011F4000F7FF47FAE1A682B498A4205D0BF
:1026D00001F500718A4201D0002014E644F40004A0
:1026E00026498A6822F0E07214438C60244A1268FA
:1026F00092092449A1FB02129209013202EB420223
:102700009200019202E0019A013A0192019A002A94
:10271000F9D10020F7E511F0807F7FF458AE1A68F8
:1027200015498A4205D001F500718A4201D0002086
:10273000E9E544F080721148816821F0E0710A43B4
:1027400082600020DFE511F4800F11D119680A4A78
:10275000914201D00020D6E544F480020748816808
:1027600021F0E0710A4382600020CCE50020CAE538
:102770000020C8E50220C9E5000004500003045011
:1027800000000020632D3E0530B583B00023019387
:1027900003689A6812F0010F58D1044699682D4ACF
:1027A000114219D19A6822F0004222F03F0242F011
:1027B00001029A60284B9B6813F4000F1CD0274B32
:1027C0001B689B09264AA2FB03239B09013303EBE9
:1027D00043039B0001930CE0436D43F010034365FA
:1027E000836D43F001038365012030E0019B013BD1
:1027F0000193019B002BF9D1FFF7C6FB0546236827
:102800001A6812F0010F1FD19A6812F0010F07D158
:102810009A6822F0004222F03F0242F001029A60E0
:10282000FFF7B2FB431B022BE9D923681B6813F0A7
:10283000010FE4D1636D43F010036365A36D43F0B2
:102840000103A365012002E0002000E0002003B0A6
:1028500030BD00BF3F000080000304500000002096
:10286000632D3E0538B53A4B9D6803689B6813F0AD
:10287000040F69D1044605F01F0590F85030012B74
:1028800064D0012380F85030FFF77EFF002857D135
:10289000636D23F4706323F0010343F48073636575
:1028A00023682C4A93422FD01A46934200D01DB978
:1028B000626D22F480126265626D12F4805F26D030
:1028C000A26D22F00602A2651C221A60002384F881
:1028D000503022681F4B9A421CD013469A421CD09B
:1028E000DDB1052D19D0092D17D0626D42F480128B
:1028F0006265DB6813F0007F27D0636D23F44053DB
:1029000043F48053636520E0A2F58072CDE7002296
:10291000A265D9E7A3F58073E0E7D36813F0007FE1
:1029200005D0636D23F4405343F48053636593688B
:1029300023F0004323F03F0343F00403936004E0DB
:10294000002384F8503000E0022038BD0220FCE76C
:10295000000304500001045090F85020012A00F0B8
:102960008C8010B49BB00346012280F850200022D6
:10297000169217920068424A90423FD0002201927C
:10298000019A002A3ED0926812F0040200D001227F
:10299000806810F0040F61D1002A5FD10A68002A14
:1029A00039D0384CA26822F46042486893F830C0AD
:1029B00040EA4C300243A260314A906810F00100B6
:1029C00000D00120304A926812F0010200D00122AA
:1029D00002432E48806810F0010000D0012002431D
:1029E00047D1284CA26822F4716222F00F020868D5
:1029F000896801430A43A260002034E002F5807236
:102A00000192BDE75A6D42F020025A65002283F818
:102A1000502001202AE01B498A6822F460428A6023
:102A2000174A916811F0010100D00121164A9268FD
:102A300012F0010200D001220A431449896811F002
:102A4000010100D001210A4315D10E498A6822F400
:102A5000716222F00F028A60002004E05A6D42F099
:102A600020025A650120002283F850201BB010BCC0
:102A700070470020F7E70020F5E70220704700BF0D
:102A800000000450000304500001045000020450F0
:102A9000074AD36823F4E0631B041B0C000200F414
:102AA000E060034343F0BF6343F40033D3607047F7
:102AB00000ED00E000B5194BDB68C3F30223C3F15E
:102AC000070CBCF1040F28BF4FF0040C03F1040EF7
:102AD000BEF1060F18D9033B4FF0FF3E0EFA0CFC77
:102AE00021EA0C0199400EFA03F322EA0303194389
:102AF00000280BDB0901C9B200F1604000F561401C
:102B000080F800135DF804FB0023E5E700F00F00F8
:102B10000901C9B2024B1954F4E700BF00ED00E00F
:102B200014ED00E0002807DB00F01F02400901233C
:102B30009340024A42F82030704700BF00E100E0B5
:102B40000138B0F1807F0BD24FF0E0235861054A85
:102B5000F02182F823100020986107221A61704743
:102B60000120704700ED00E0042806D04FF0E0227D
:102B7000136923F00403136170474FF0E0221369D7
:102B800043F0040313617047002872D010B4034669
:102B90000068394A904249D8384A02443849A1FB72
:102BA0000212120992005A64364A1A64022283F809
:102BB0002520016821F4FF4121F070019A68DC684A
:102BC00022431C6922435C6922439C692243DC69DD
:102BD00022431C6A22430A4302609A68B2F5804F7E
:102BE0001BD0196C274A91422BD0264AD2F8A81440
:102BF000586C00F01C0C0F2000FA0CF021EA0001C8
:102C0000C2F8A814D2F8A81458685C6C04F01C0C24
:102C100000FA0CF00143C2F8A8140020D863012286
:102C200083F8252083F8240010BC7047164A02441C
:102C30001349A1FB0212120992005A64134A1A6442
:102C4000B4E7D2F8A810586C00F01C0C0F2000FA62
:102C50000CF021EA0001C2F8A810D2F8A8105868B8
:102C60005C6C04F01C0C00FA0CF00143C2F8A810D4
:102C7000D3E70120704700BF07040240F8FFFDBF03
:102C8000CDCCCCCC00000240F8FBFDBF00040240DC
:102C900038B5036C196804682568436C03F01C039D
:102CA00004229A400A4215D015F0040F12D023686E
:102CB00013F0200F03D1236823F004032360436C37
:102CC00003F01C02016C042393404B60036B03B1BF
:102CD000984738BD02229A400A421CD015F0020FD4
:102CE00019D0236813F0200F06D1236823F00A03BC
:102CF0002360012380F82530436C03F01C02016C33
:102D0000022393404B60002380F82430C36A002BD9
:102D1000DFD09847DDE7082202FA03F30B42D8D050
:102D200015F0080FD5D0236823F00E032360436C01
:102D300003F01C03016C012202FA03F34B60C2632F
:102D400080F82520002380F82430436B002BC0D06E
:102D50009847BEE770B582B000236EE085685E00DC
:102D60000324B44025EA0405CC68B4402C438460B5
:102D7000456825EA0C054C68C4F300149C402C43BC
:102D800044606DE0C56A25EA0C0CC4F3C0049C40A5
:102D900044EA0C04C46269E0DD08083550F8256097
:102DA00003F007044FEA840C0F2404FA0CF426EA1B
:102DB000040E0C6904FA0CF444EA0E0440F82540B1
:102DC0006CE0062400E0002404FA0EF42C430CF11D
:102DD000020C5F4D45F82C405E4CA568D44325EAB3
:102DE0000206D1F804C01CF4801F01D042EA050697
:102DF000584DAE60ED6804EA0506D1F804C01CF435
:102E0000001F01D042EA0506524DEE606D6804EAEB
:102E10000506D1F804C01CF4003F01D042EA0506C3
:102E20004C4D6E602D682C404E6816F4803F01D0EA
:102E300042EA0504474A146001330A6832FA03F48F
:102E400000F083804FF0010C0CFA03FC1CEA020234
:102E5000F2D04C6804F00304013C012C7FF67EAFF5
:102E60004C6804F0030EBEF1030F8BD04C6804F0E5
:102E70000304032C0CD0C4685D004FF0030C0CFA63
:102E800005FC24EA0C0C8C68AC4044EA0C04C460D9
:102E90004C6804F00304022C3FF47EAF04684FEA50
:102EA000430E4FF0030C0CFA0EFC24EA0C0C4C6899
:102EB00004F0030404FA0EF444EA0C0404604C68C1
:102EC00014F4403FB8D0244C256E45F0010525662A
:102ED000246E04F001040194019C4FEA930C0CF160
:102EE00002051B4C54F8255003F003044FEA840EEE
:102EF0000F2404FA0EF425EA0405B0F1904F3FF4D4
:102F000062AF164CA04216D004F58064A04214D0E3
:102F100004F58064A04212D004F58064A04210D071
:102F200004F58064A0420ED004F58064A0423FF412
:102F300048AF072448E7012446E7022444E7032476
:102F400042E7042440E705243EE702B070BD00BF1D
:102F5000000001400004014000100240000400484D
:102F60000369194201D001207047002070470AB15F
:102F700081617047816270477047000008B5054B5A
:102F80005B69034200D108BD024B5861FFF7F4FFB3
:102F9000F9E700BF00040140024B186800F4C0606C
:102FA000704700BF00700040B0F5007F0FD01F4B8E
:102FB0001B6803F4C063B3F5806F34D01B4A1368F9
:102FC00023F4C06343F48063136000207047174B01
:102FD0001B6803F4C063B3F5007F20D0134A136865
:102FE00023F4C06343F400731360114B1B68322257
:102FF00002FB03F30F4AA2FB03239B0C013300E007
:10300000013B0A4A526912F4806F01D0002BF7D1BC
:10301000064B5B6913F4806F03D1002070470020DA
:103020007047032070470020704700BF00700040C9
:103030000000002083DE1B4330B583B00446204BE4
:103040009B6D13F0805F0BD0FFF7A6FFB0F5007FFC
:1030500017D0802C1FD82DD0702C2DD000211BE034
:10306000174DAB6D43F08053AB65AB6D03F08053F0
:103070000193019BFFF790FFAB6D23F08053AB658D
:10308000E4E7802C03D9A02C03D9022104E000211D
:1030900002E0012100E003210A4A136823F007033C
:1030A0000B431360136803F007038B4206D1002023
:1030B00003B030BD0221EFE70121EDE70120F7E782
:1030C0000010024000200240284A9368D26802F0B3
:1030D000030213F00C030AD00C2B06D0042B1FD0D4
:1030E000082B20D00020024610E0012AF6D11F4A0A
:1030F000126812F0080F0CD11C4AD2F89420C2F3C7
:1031000003221B4951F8222043B100200C2B0DD083
:103110007047164A1268C2F30312F2E71046F5E749
:1031200014480022F2E714480022EFE70F4BDB6857
:1031300003F00303022B16D0032B00D10E4A0B49D8
:10314000C868C0F30210431CC868C0F3062002FB25
:1031500000F0B0FBF3F0CB68C3F3416301335B00D5
:10316000B0FBF3F0D4E7034AE9E700BF00100240E8
:10317000782403080024F40000127A00002800F0EC
:10318000F182F0B583B00446964B9D6805F00C05BE
:10319000DE6806F00306036813F0100F5AD0E5B19D
:1031A0000C2D18D0A369002B00F0BB808D4A13684A
:1031B00043F001031360FEF7E7FE0746894B1B68E7
:1031C00013F0020F40F09A80FEF7DEFEC01B0228CB
:1031D000F4D90320D1E2012EE4D1824B1B6813F015
:1031E000020F03D0A369002B00F0BE82206A7D4B42
:1031F0001B6813F0080F5BD07A4B1B6803F0F003D9
:1032000098425CD8774B1A6842F008021A601A6834
:1032100022F0F002216A0A431A605A6822F47F42BF
:10322000E16942EA01225A60002D60D0FFF74CFFAD
:103230006C4B9B68C3F303136B4AD35C03F01F030F
:10324000D8406A4B18606A4B1868FEF759FE002890
:1032500040F09382236813F0010F00F08180082D65
:1032600075D00C2D71D06368B3F5803F00F0978066
:10327000B3F5A02F00F099805A4B1A6822F48032DF
:103280001A601A6822F480221A606368002B00F02A
:103290009980FEF779FE0746524B1B6813F4003FF6
:1032A0005ED1FEF771FEC01B6428F5D9032064E2ED
:1032B0004C4BD3F894301B0903F0F003A0E7FFF761
:1032C000BBFE002840F05282464B1A6842F00802CA
:1032D0001A601A6822F0F002216A0A431A605A68DA
:1032E00022F47F42E16942EA01225A609EE7206AA5
:1032F000FFF7A2FE002899D001203EE2394B1A6860
:1033000042F008021A601A6822F0F002216A0A43A9
:103310001A605A6822F47F42E16942EA01225A6047
:1033200098E7304A136823F001031360FEF72CFE80
:1033300007462C4B1B6813F0020F8BD0FEF724FEC0
:10334000C01B0228F5D9032017E2032E8BD1254B91
:103350001B6813F4003F03D06368002B00F0088261
:10336000236813F0020F58D0042D45D00C2D41D006
:10337000E368002B77D01B4A136843F48073136013
:10338000FEF702FE0646174B1B6813F4806F61D1EF
:10339000FEF7FAFD801B0228F5D90320EDE1114A62
:1033A000136843F4803313606FE703F18043A3F5A0
:1033B0003C331A6842F480221A601A6842F4803260
:1033C0001A6062E7FEF7E0FD0746064B1B6813F440
:1033D000003FC5D0FEF7D8FDC01B6428F5D90320F7
:1033E000CBE100BF00100240602403080000002071
:1033F00008000020022EBBD1A34B1B6813F4806F82
:1034000003D0E368002B00F0B5819F4A536823F096
:10341000F853216943EA01635360236813F0080FEE
:103420004CD063699BB3984AD2F8943043F00103BF
:10343000C2F89430FEF7A8FD0646934BD3F89430BB
:1034400013F0020F3AD1FEF79FFD801B0228F4D93A
:10345000032092E18C4A536823F0F853216943EA30
:1034600001635360D9E7884A136823F480731360BB
:10347000FEF78AFD0646844B1B6813F4806FCCD0A0
:10348000FEF782FD801B0228F5D9032075E17E4AF4
:10349000D2F8943023F00103C2F89430FEF774FDA3
:1034A0000646794BD3F8943013F0020F06D0FEF79E
:1034B0006BFD801B0228F4D903205EE1236813F022
:1034C000040F7AD0704B9B6D13F0805F36D16E4B3A
:1034D0009A6D42F080529A659B6D03F08053019380
:1034E000019B0126694B1B6813F4807F28D0A368D9
:1034F000012B39D0052B3FD0634BD3F8902022F01D
:103500000102C3F89020D3F8902022F00402C3F8FF
:103510009020A368002B3DD0FEF736FD07465A4B9E
:10352000D3F8903013F0020F46D1FEF72DFDC01BEB
:1035300041F288339842F2D903201EE10026D1E7F8
:10354000524A136843F480731360FEF71DFD07466B
:103550004E4B1B6813F4807FC9D1FEF715FDC01BCD
:103560000228F5D9032008E1474AD2F8903043F009
:103570000103C2F89030CCE7434BD3F8902042F0DF
:103580000402C3F89020D3F8902042F00102C3F85F
:103590009020BEE7FEF7F8FC07463B4BD3F890308F
:1035A00013F0020F08D0FEF7EFFCC01B41F2883386
:1035B0009842F2D90320E0E0EEB9A36A002B00F0B4
:1035C000DB80022B1DD00C2D00F0DD802E4A13680D
:1035D00023F080731360FEF7D7FC04462A4B1B6868
:1035E00013F0007F00F0B780FEF7CEFC001B02282E
:1035F000F4D90320C1E0244A936D23F080539365EE
:10360000DBE7214BDB6803F00301E26A91420FD054
:103610000C2D00F0B4801C4B1B6813F0806F40F041
:10362000B080194B1B6813F0805F31D00120A4E0FB
:1036300003F07002216B0139B2EB011FE8D103F4F2
:10364000FE42616BB2EB012FE2D103F40031A26BB9
:10365000073A18BF01229142DAD103F4C001E26BAC
:103660005208013AB1EB425FD2D103F0C063226C41
:103670005208013AB3EB426FCAD1034B1B6813F0F7
:10368000007F4ED0002078E0001002400070004023
:103690003E4A136823F080731360FEF775FC0546FD
:1036A0003A4B1B6813F0007F06D0FEF76DFC401B01
:1036B0000228F5D9032060E0344AD3683449194020
:1036C000E36A206B013843EA0013606B43EA00238E
:1036D000E06B4008013843EA4053206C4008013851
:1036E00043EA4063A06B000943EA40430B43D360C5
:1036F000136843F080731360D36843F08073D36022
:10370000FEF742FC0446214B1B6813F0007F06D1F4
:10371000FEF73AFC001B0228F5D903202DE000201B
:103720002BE01A4B1A6842F080721A60DA6842F095
:103730008072DA60FEF728FC0446144B1B6813F015
:10374000007F06D1FEF720FC031B022BF5D90320D6
:1037500013E0002011E00D4AD1680E4B0B40D360FE
:1037600000200AE001207047012006E0012004E06B
:10377000012002E0012000E0002003B0F0BD0120A4
:10378000FBE70120F9E70120F7E700BF0010024046
:103790008C809DF9FCFFEEFE002800F0AF8070B534
:1037A0000D460446594B1B6803F007038B420BD2AE
:1037B000564A136823F007030B431360136803F0A2
:1037C00007038B4240F09C80236813F0020F0CD05B
:1037D000A2684F4B9B6803F0F0039A4205D94C490D
:1037E0008B6823F0F0031A438A60236813F0010FFB
:1037F00039D06368032B09D0022B26D063BB444A1F
:10380000126812F0020F06D1012076E0404A1268D9
:1038100012F0007F76D03E498A6822F003021343FB
:103820008B60FEF7B1FB0646394B9B6803F00C0337
:103830006268B3EB820F16D0FEF7A6FB801B41F245
:1038400088339842F0D9032057E0314A126812F4C5
:10385000003FE0D1012050E02D4A126812F4806F41
:10386000D9D1012049E0236813F0020F0CD0A268DF
:10387000274B9B6803F0F0039A4205D224498B68DA
:1038800023F0F0031A438A60204B1B6803F0070300
:10389000AB420AD91D4A136823F007032B43136078
:1038A000136803F00703AB422ED1236813F0040F13
:1038B00006D0174A936823F4E063E1680B439360F2
:1038C000236813F0080F07D0114A936823F460535C
:1038D000216943EAC1039360FFF7F6FB0C4B9B6839
:1038E000C3F303130B4AD35C03F01F03D8400A4B06
:1038F00018600A4B1868FEF703FB70BD0120704783
:103900000120FAE70120F8E70120F6E70020024055
:10391000001002406024030800000020080000207E
:10392000014B1868704700BF0000002008B5FFF782
:10393000F7FF054B9B68C3F30223044AD35C03F0F3
:103940001F03D84008BD00BF0010024070240308C8
:1039500008B5FFF7E5FF054B9B68C3F3C223044A94
:10396000D35C03F01F03D84008BD00BF0010024025
:1039700070240308F8B504460F46594BDB6813F072
:10398000030F18D0564BDB6803F003030268934221
:1039900002D001252846F8BD002A00F09E80504B39
:1039A000DB68C3F3021301334268934201D001255F
:1039B000F0E7002509E00368022B57D0032B5CD009
:1039C000012B42D00125002DE4D1454A136823F094
:1039D00080631360FEF7D8FA0646414B1B6813F06C
:1039E000006F05D0FEF7D0FA831B022BF5D9032513
:1039F000002DCFD1002F4ED139490B6923F41F334D
:103A000023F44073A068E2681209520442EA0022DB
:103A100013430B61324A136843F080631360FEF76F
:103A2000B3FA06462E4B1B6813F0006F05D1FEF764
:103A3000ABFA831B022BF5D90325002DAAD1284A06
:103A40001369A1690B431361A4E7254A126812F0B8
:103A5000020F1ED02248C26822F073026168013949
:103A600043EA01131343C3600025ACE71C4A126804
:103A700012F4806FEED10125A5E7194A126812F4FD
:103A8000003FE7D1164A126812F4802FE2D10125D7
:103A900099E7012597E7012F0FD01148026922F01D
:103AA000C06222F4FE42A16863695B08013B5B06C9
:103AB00043EA012313430361ACE70948026922F496
:103AC000C00222F4FE42A16823695B08013B5B054A
:103AD00043EA0123134303619CE701255AE700BF32
:103AE00000100240F8B504460F46504BDB6813F057
:103AF000030F18D04D4BDB6803F0030302689342B9
:103B000002D001252846F8BD002A00F08C80474BE2
:103B1000DB68C3F3021301334268934201D00125ED
:103B2000F0E7002509E00368022B57D0032B5CD097
:103B3000012B42D00125002DE4D13C4A136823F02B
:103B400080531360FEF720FA0646384B1B6813F0CB
:103B5000005F05D0FEF718FA831B022BF5D9032569
:103B6000002DCFD1002F4ED130494B6923F41F33A4
:103B700023F44073A068E2681209520442EA00226A
:103B800013434B61294A136843F080531360FEF7D7
:103B9000FBF90646254B1B6813F0005F05D1FEF7C5
:103BA000F3F9831B022BF5D90325002DAAD11F4A57
:103BB000536961690B435361A4E71C4A126812F010
:103BC000020F1ED01948C26822F0730261680139E1
:103BD00043EA01131343C3600025ACE7134A12689C
:103BE00012F4806FEED10125A5E7104A126812F495
:103BF000003FE7D10D4A126812F4802FE2D101256F
:103C000099E7012597E70948426922F0C06222F44A
:103C1000FE42A16823695B08013B5B0643EA01237E
:103C200013434361AEE701256CE700BF001002407B
:103C30002DE9F04182B00446036813F4006F33D0DD
:103C4000436EB3F5000F1FD00CD823B3B3F5800F2C
:103C500005D100212030FFF745FF064620E001276F
:103C60003E4623E0B3F5400F0BD10026604AD2F860
:103C7000883023F44003616E0B43C2F8883000277C
:103C800014E001273E4611E0594AD36843F48033DB
:103C9000D3600026EAE700210430FFF76BFE0646FA
:103CA000002EE3D0374601E000273E46236813F498
:103CB000805F30D0A36EB3F1007F1FD00DD81BB34F
:103CC000B3F1807F06D1002104F12000FFF70AFF45
:103CD000064605E001273E461DE0B3F1407F0AD1CC
:103CE000C6B9434AD2F8883023F04073A16E0B4323
:103CF000C2F888300FE001273E460CE03C4AD3680A
:103D000043F48033D360EBE70021201DFFF732FE40
:103D10000646E5E73746236813F4003F71D0344B7D
:103D20009B6D13F0805F4ED1314B9A6D42F0805203
:103D30009A659B6D03F080530193019B4FF001083E
:103D40002C4A136843F480731360FEF71DF905468F
:103D5000284B1B6813F4807F05D1FEF715F9401B33
:103D60000228F5D90326002E46D1214BD3F89030F6
:103D700013F4407316D0D4F884209A4212D01C4A0F
:103D8000D2F8903023F44073D2F8901041F480318F
:103D9000C2F89010D2F8901021F48031C2F890103F
:103DA000C2F8903013F0010F10D1002E40F027819F
:103DB0000F4AD2F8903023F44073D4F884100B43A8
:103DC000C2F8903019E04FF00008B9E7FEF7DCF8D0
:103DD0000546074BD3F8903013F0020FE5D1FEF7FC
:103DE000D3F8401B41F288339842F2D90326DCE72E
:103DF00000100240007000403746B8F1000F40F05C
:103E00000081236813F0010F08D09D4AD2F8883052
:103E100023F00303A16B0B43C2F88830236813F02F
:103E2000020F08D0964AD2F8883023F00C03E16BD9
:103E30000B43C2F88830236813F0040F08D0904A6F
:103E4000D2F8883023F03003216C0B43C2F888305D
:103E5000236813F0080F08D0894AD2F8883023F07D
:103E6000C003616C0B43C2F88830236813F0100F55
:103E700008D0834AD2F8883023F44073A16C0B43F6
:103E8000C2F88830236813F0200F08D07C4AD2F89B
:103E9000883023F44063E16C0B43C2F88830236818
:103EA00013F4007F08D0764AD2F8883023F44023F8
:103EB000E16D0B43C2F88830236813F4806F08D09B
:103EC0006F4AD2F8883023F44013216E0B43C2F8B6
:103ED0008830236813F0400F08D0694AD2F8883040
:103EE00023F44053216D0B43C2F88830236813F04C
:103EF000800F08D0624AD2F8883023F44043616DC5
:103F00000B43C2F88830236813F4807F08D05C4AE2
:103F1000D2F8883023F44033A16D0B43C2F88830C7
:103F2000236813F4005F0FD0554AD2F8883023F08D
:103F30004063E16E0B43C2F88830E36EB3F1006F6B
:103F400065D0B3F1806F67D0236813F4002F0FD0D2
:103F50004B4AD2F8883023F04063216F0B43C2F8FC
:103F60008830236FB3F1006F5ED0B3F1806F60D003
:103F7000236813F4802F0FD0414AD2F8883023F001
:103F80004063616F0B43C2F88830636FB3F1006F19
:103F900057D0B3F1806F59D0236813F4804F0FD0FE
:103FA000374AD2F8883023F04053A16F0B43C2F850
:103FB0008830A36FB3F1805F50D0B3F1005F55D06C
:103FC000236813F4004F08D02D4AD2F8883023F02C
:103FD0008043E16F0B43C2F88830236813F4803FBD
:103FE00009D0274AD2F8883023F00043D4F8801053
:103FF0000B43C2F88830384602B0BDE8F08137463E
:10400000FBE61F4A936D23F080539365F9E6D3686E
:1040100043F48013D36097E70121201DFFF7AAFC2A
:10402000002891D007468FE7D36843F48013D3600C
:104030009EE70121201DFFF79DFC002898D0074630
:1040400096E7D36843F48013D360A5E70121201DD0
:10405000FFF790FC00289FD007469DE70221201D16
:10406000FFF788FC0028ABD00746A9E7022104F13E
:104070002000FFF737FD0028A2D00746A0E700BFC9
:10408000001002402DE9F04782B0054688461746E9
:104090001E46FDF779FF0A9B1B1A03EB0609FDF785
:1040A00073FF82462B4B1B68C3F3CB3309FB03F32F
:1040B00001932B689C6838EA04030CBF4FF0010C95
:1040C0004FF0000CBC4540D0B6F1FF3FF1D0FDF7FA
:1040D0005BFFA0EB0A0048450AD2B9F1000F07D0F8
:1040E000019A02B14A46019B013B01939146E0E7E8
:1040F0002A68536823F0E00353606B68B3F5827F4E
:104100000BD0AB6AB3F5005F14D0012385F85D30A6
:10411000002385F85C30032018E0AB68B3F5004F4E
:1041200002D0B3F5806FECD12A68136823F0400306
:104130001360E6E72A68136823F4005313602A68C3
:10414000136843F400531360DFE7002002B0BDE8BA
:10415000F08700BF000000202DE9F04782B006463E
:104160000C4615461F4600238DF80330FDF70CFF63
:104170000A9B1B1A03EB0708FDF706FF8146D6F8DA
:1041800000A0314B1B6803EB8303C3EBC3031B0D80
:1041900008FB03F3019302E0B7F1FF3F12D133684C
:1041A0009B6803EA040CAC454AD0B4F5C06FF3D168
:1041B000002DF1D19AF80C30DBB28DF803309DF868
:1041C0000330E9E7FDF7E0FEA0EB090040450AD225
:1041D000B8F1000F07D0019A02B14246019B013BA2
:1041E00001939046DBE73268536823F0E0035360A5
:1041F0007368B3F5827F0BD0B36AB3F5005F14D058
:10420000012386F85D30002386F85C30032018E037
:10421000B368B3F5004F02D0B3F5806FECD13268CC
:10422000136823F040031360E6E73268136823F451
:10423000005313603268136843F400531360DFE7E0
:10424000002002B0BDE8F0870000002070B582B009
:1042500004460D46164600920B4600224FF4C0510C
:10426000FFF77AFFB0B900962B4600228021204646
:10427000FFF708FFA8B900962B4600224FF4C06153
:104280002046FFF769FF50B1236E43F020032366F9
:10429000032004E0236E43F020032366032002B0D2
:1042A00070BD236E43F0200323660320F7E7002848
:1042B0006AD010B50446436A33B94368B3F5827FC8
:1042C00005D00023C36102E00023036143610023A2
:1042D000A36294F85D30002B4DD0022384F85D304A
:1042E0002268136823F040031360E368B3F5E06FBE
:1042F00047D90022B3F5706F04D0B3F5E06F01D059
:104300000023A362636803F48273A16801F404418B
:104310000B43216901F002010B43616901F00101C6
:104320000B43A16901F400710B43E16901F038010D
:104330000B43216A01F080010B43A16A01F4005193
:1043400020680B430360638B03F00403616A01F090
:1043500010010B43616B01F008010B43E16801F4AC
:1043600070610B43216813434B60002020660123DA
:1043700084F85D3010BD84F85C30204601F07CF993
:10438000ABE74FF48052B5E7012070472DE9F043C9
:1043900083B01D4690F85C30012B00F0F680044697
:1043A00088469146012380F85C30FDF7EDFD074615
:1043B00094F85D60F6B2012E40F0D480B8F1000FA1
:1043C00000F0D180B9F1000F00F0CD80032384F814
:1043D0005D3000232366C4F83880A4F83C90A4F82C
:1043E0003E902364A4F84430A4F846302365E36487
:1043F000A368B3F5004F1ED023681A6812F0400F6F
:1044000003D11A6842F040021A60E368B3F5E06F26
:1044100042D9636813B1B9F1010F23D1A26B2368AC
:104420001288DA60A36B0233A363E38F9BB2013B74
:104430009BB2E38716E02268136823F04003136001
:104440002268136843F480431360D5E7FDF79CFDB1
:10445000C01BA84203D3B5F1FF3F40F08E80002D72
:1044600000F08D80E38F9BB2002B66D023689A68A2
:1044700012F0020FEAD0A26B1288DA60A36B02334B
:10448000A363B4F83EC01FFA8CFC0CF1FF3C1FFA8A
:104490008CFCA4F83EC0E5E7636813B1B9F1010FE5
:1044A00033D1E38F9BB2012B0CD9A26B2368128806
:1044B000DA60A36B0233A363E38F9BB2023B9BB230
:1044C000E38722E0A26B236812781A73A36B01338F
:1044D000A363E38F9BB2013B9BB2E38715E0A36B21
:1044E0001B781373A36B0133A363E38F9BB2013B70
:1044F0009BB2E38709E0FDF747FDC01BA84202D34A
:10450000B5F1FF3F3DD1002D3DD0E38F9BB2A3B16C
:104510002268936813F0020FEDD0E38F9BB2012B5A
:10452000DDD9A36B1B88D360A36B0233A363E38F36
:104530009BB2023B9BB2E387E7E73A462946204617
:10454000FFF784FE08B120232366A36833B90193E3
:104550002368DA6801929B680193019B236E13B96B
:10456000002600E00226012384F85D30002384F851
:104570005C30304603B0BDE8F0830326F3E7032642
:10458000F1E70326EFE70326EDE70226F1E710B493
:10459000036A046A24F001040462846924F0F00CC4
:1045A0004CEA021223F00A030B438261036210BC3F
:1045B000704710B4046A24F0100404628469036A2A
:1045C00024F4704C4CEA023223F0A00343EA0113B6
:1045D0008261036210BC7047836823F070030B4351
:1045E00043F007038360704790F83D30DBB2012B46
:1045F00036D1022380F83D300268D36843F00103CE
:10460000D3600368194A93421CD0B3F1804F19D08C
:10461000A2F59432934215D002F58062934211D0F4
:1046200002F5806293420DD002F59432934209D094
:1046300002F54062934205D01A6842F001021A6006
:104640000020704799680A4A0A40062A0AD0B2F543
:10465000803F09D01A6842F001021A6000207047BA
:10466000012070470020704700207047002C014057
:1046700007000100704770477047704710B5044647
:1046800003681A6912F0020F11D0DA6812F0020FF3
:104690000DD06FF002021A610123037703689B6952
:1046A00013F0030F79D0FFF7E6FF00232377236889
:1046B0001A6912F0040F12D0DA6812F0040F0ED04B
:1046C0006FF004021A610223237723689B6913F4B5
:1046D000407F68D02046FFF7CEFF00232377236872
:1046E0001A6912F0080F12D0DA6812F0080F0ED013
:1046F0006FF008021A61042323772368DB6913F043
:10470000030F57D02046FFF7B6FF00232377236817
:104710001A6912F0100F12D0DA6812F0100F0ED0D2
:104720006FF010021A61082323772368DB6913F402
:10473000407F46D02046FFF79EFF00232377236863
:104740001A6912F0010F03D0DA6812F0010F3FD19D
:1047500023681A6912F0800F03D0DA6812F0800F14
:104760003DD123681A6912F4807F03D0DA6812F011
:10477000800F3BD123681A6912F0400F03D0DA682A
:1047800012F0400F39D123681A6912F0200F03D0BC
:10479000DA6812F0200F37D110BDFFF76BFF20460B
:1047A000FFF76AFF81E72046FFF764FF2046FFF727
:1047B00063FF92E72046FFF75DFF2046FFF75CFFAF
:1047C000A3E72046FFF756FF2046FFF755FFB4E763
:1047D0006FF001021A61204601F046F9B8E76FF068
:1047E00080021A61204600F084F9BAE76FF4807203
:1047F0001A61204600F07EF9BCE76FF040021A61B2
:104800002046FFF73AFFBEE76FF020021A6120460C
:1048100000F06EF9C0E700000368304A904212D001
:10482000B0F1804F0FD0A2F5943290420BD002F538
:104830008062904207D002F58062904203D002F578
:104840009432904203D123F070034A681343234A01
:1048500090421ED0B0F1804F1BD0A2F5943290420E
:1048600017D002F58062904213D002F58062904228
:104870000FD002F5943290420BD002F54062904284
:1048800007D002F58062904203D002F58062904228
:1048900003D123F44073CA68134323F080034A69A9
:1048A000134303608B68C3620B6883620B4B9842AF
:1048B0000FD003F5006398420BD003F54063984294
:1048C00007D003F58063984203D003F580639842D4
:1048D00001D10B690363012343617047002C014040
:1048E00060B310B5044690F83D3013B3022384F84A
:1048F0003D30214651F8040BFFF78EFF012384F869
:10490000483084F83E3084F83F3084F8403084F8F2
:10491000413084F8423084F8433084F8443084F8DD
:10492000453084F8463084F8473084F83D30002024
:1049300010BD80F83C3001F06FF8D7E701207047D8
:1049400010B4846824F47F4C42EA03220A4342EA0A
:104950000C02826010BC704790F83C30012B76D07E
:1049600010B50446012380F83C30022380F83D3026
:1049700002689068374B034093600B68602B4CD003
:1049800029D8402B54D00CD9502B22D1CA68496861
:104990002068FFF7FCFD50212068FFF71DFE002076
:1049A00005E0202B0DD009D9302B0AD0012001239E
:1049B00084F83D30002384F83C3010BD0BB1102B3F
:1049C00005D119462068FFF707FE0020EFE7012018
:1049D000EDE70120EBE7B3F5805F34D0B3F5005F7E
:1049E0000CD1CB684A6889682068FFF7A9FF226864
:1049F000936843F4804393600020D8E7702B24D160
:104A0000CB684A6889682068FFF79AFF2268936834
:104A100043F0770393600020C9E7CA6849682068BB
:104A2000FFF7C7FD60212068FFF7D6FD0020BEE735
:104A3000CA6849682068FFF7AAFD40212068FFF78F
:104A4000CBFD0020B3E70020B1E70120AFE7022053
:104A5000704700BF8800FEFF90F83C30012B42D029
:104A600030B4012380F83C30022380F83D300268E6
:104A7000536894681D4DAA4203D005F50065AA420B
:104A800003D123F470034D682B4323F070030D68AA
:104A90002B4353600368154A934216D0B3F1804FFD
:104AA00013D0A2F5943293420FD002F58062934264
:104AB0000BD002F58062934207D002F59432934204
:104AC00003D002F54062934204D124F080048A6846
:104AD00014439C60012380F83D30002380F83C3073
:104AE000184630BC70470220704700BF002C0140C0
:104AF000704770477047000010B50446836802692C
:104B000013434269134343F40043016808684B4A66
:104B1000024013430B60236A43F40062A369E16916
:104B20000B431343E2681A4321684B6823F47C5318
:104B300013434B602368424A934219D0414A93423F
:104B400021D0414A93422ED000230120A3F110012D
:104B50004FF6EF7291426FD89AB222F00F02C3F370
:104B6000420313432268D3600023A363E36310BDB1
:104B7000364BD3F8883003F00303032B56D8DFE815
:104B800003F0371D4B2C314BD3F8883003F00C0366
:104B90000C2B4ED8DFE803F0364D4D4D124D4D4DE8
:104BA000404D4D4D2100294BD3F8883003F03003A0
:104BB000202B31D00FD82BB3102B09D1FEF784FA5C
:104BC00061684A0802EB4003B3FBF1F30020BDE744
:104BD00000230120BAE7302B07D16068430803F5B2
:104BE0008033B3FBF0F30020B0E700230120ADE7F2
:104BF000FEF7AEFE6268530803EB4003B3FBF2F32B
:104C00000020A3E7FEF792FE61684A0802EB40032A
:104C1000B3FBF1F3002099E76068430803F1F473F4
:104C200003F59043B3FBF0F300208FE7002301204E
:104C30008CE70023012089E7012095E7F369FFEF66
:104C4000003801400044004000480040001002408D
:104C50002DE9F84305460F4616469946DDF82080B3
:104C60002C68E46937EA04030CBF4FF0010C4FF0E5
:104C7000000CB44513D1B8F1FF3FF1D0FDF784F932
:104C8000A0EB0900404502D8B8F1000FE8D101239C
:104C900085F84930002385F84830032000E00020E3
:104CA000BDE8F88330B583B004460023C364FDF744
:104CB0006BF905462268126812F0080F0CD12368C0
:104CC0001B6813F0040F15D1012384F8493000202C
:104CD00084F8480003B030BD4FF47A730093034664
:104CE00000224FF400112046FFF7B2FF0028E6D063
:104CF0000320EFE74FF47A7300932B4600224FF422
:104D000080012046FFF7A4FF0028DDD00320E1E763
:104D100048B310B5044690F84930FBB1022384F83B
:104D200049302268136823F0010313602046FFF71F
:104D3000E3FE012811D02268536823F480435360B6
:104D40002268936823F02A0393602268136843F073
:104D5000010313602046FFF7A5FF10BD80F848301F
:104D6000FDF764F8DAE701207047000030B589B03C
:104D7000164BDA6C42F00402DA64DA6C02F00402D8
:104D80000192019ADA6C42F00802DA64DB6C03F0FB
:104D900008030293029B4FF4E063039300250495FC
:104DA000022305930324069403A90948FDF7D2FFC3
:104DB0004FF400530393049501230593069403A92C
:104DC0000448FDF7C7FF09B030BD00BF0010024026
:104DD000000C00480008004808B501281CD0384BDA
:104DE0001B785BB34FF480613648FEF7B9F828B101
:104DF0004FF400713348FEF7B3F888B90A2000F089
:104E00008DF82F4B00221A704FF480612D48FEF769
:104E1000A7F8E0B9012019E0294B01221A70DEE75A
:104E20004FF480712748FEF79BF80028E6D04FF436
:104E300000512548FEF794F80128DFD04FF4806137
:104E40002048FEF78DF8012816D0002008BD4FF449
:104E500000711C48FEF784F850B34FF48071194874
:104E6000FEF77EF830B34FF400511748FEF778F89C
:104E7000012821D00020E9E74FF400711148FEF726
:104E80006FF8012801D00020E0E74FF480710D4851
:104E9000FEF766F8012801D00020D7E74FF4005153
:104EA0000948FEF75DF848B9054B01221A70CDE7B5
:104EB0000220CBE70320C9E70420C7E70020C5E7AD
:104EC0000C000020000C00480008004810B5044603
:104ED0000420FDF749FE014B1C6010BD180700209F
:104EE00010B44FF0E02254690B4B1B6800FB03FC2D
:104EF0009369002104E0E01A02441144614509D29B
:104F00001A464FF0E0239B699A42FAD0F3D9D21A9D
:104F10001144F3E710BC70471807002038B5054668
:104F2000002404E04FF47A70FFF7DAFF0134A54261
:104F3000F8D838BD0246012002E002FB00F0194615
:104F40004B1EDBB20029F8D170470000F8B50646C9
:104F50000F46104DA5FB0135ED0B00240DE0C4EB11
:104F600004400C4BA3FB0723DB0BC3EB0343FB1AEF
:104F700099B2304400F0AAFB0134AC4209D8AC42EB
:104F8000EDD0C4EB04404FF6FF71304400F09EFBBF
:104F9000F2E7F8BD0180008000B583B08DF807000E
:104FA000012210210548FDF7E2FF01210DF1070064
:104FB000FFF7CCFF03B05DF804FB00BF000400481E
:104FC00000B583B08DF80700002210210548FDF7D9
:104FD000CEFF01210DF10700FFF7B8FF03B05DF828
:104FE00004FB00BF00040048F0B589B0234BDA6C25
:104FF00042F00202DA64DA6C02F002020192019AD3
:10500000DA6C42F00802DA64DB6C03F00803029306
:10501000029BD0250395012604960596022306934C
:10502000174C03A92046FDF795FE0022294620468D
:10503000FDF79DFF80250395124F03A93846FDF724
:1050400089FE002229463846FDF791FF00222946B5
:105050003846FDF78CFF002229462046FDF787FFE2
:10506000002240212046FDF782FF324640212046A3
:10507000FDF77DFF00F0DAFA09B0F0BD0010024044
:1050800000040048000C004800B583B00023ADF8D0
:105090000430030A8DF804308DF805000122102138
:1050A0000448FDF764FF022101A8FFF74FFF03B09A
:1050B0005DF804FB00040048F8B507460D461646A7
:1050C0001C462A20FFF77CFF380AFFF765FFF8B27D
:1050D000FFF762FF300AFFF75FFFF0B2FFF75CFFF8
:1050E0002B20FFF76DFF280AFFF756FFE8B2FFF706
:1050F00053FF200AFFF750FFE0B2FFF74DFF2C20CF
:10510000FFF75EFFF8BD000070B582B00024ADF877
:105110000440060A8DF80460C5B28DF80550EF23EF
:105120001A4621462046FFF7C7FF214607E04B00FD
:105130000D4A02F811600133D554013189B2B1F53D
:10514000107FF4D3012210210848FDF710FF00243E
:1051500006E04FF490610448FFF7F8FE0134A4B272
:10516000632CF6D902B070BD20070020000400486F
:105170002DE9F8431F465C08C4F1F003984206DCB1
:10518000203A5FFA82F8C7F1F003994201DDBDE8E9
:10519000F883021992B2CB199BB2013B013A9BB240
:1051A00092B2FFF789FF102F0AD0202F08D00C2FC2
:1051B00035D0182FEBD17F00FFB24FF000096BE024
:1051C00017F0070318BF012303EBD70313FB04F405
:1051D0005FFA84F9002616E0374B03EB08139D5D58
:1051E0001BE0364B1888FFF74FFF6D00EDB201341E
:1051F000E4B2072C05D815F0800FF2D1304B188897
:10520000F1E70136F6B24E45C1D2102FE4D0202F7F
:10521000BDD12C4B03EBC8139D5D0024E9E717F0CB
:10522000070318BF012303EBD70717FB04F4E7B20A
:10523000002611E0214B1888FFF726FF6D00EDB224
:105240000134E4B2052C05D815F0800FF2D11C4BC7
:105250001888F1E70136F6B2BE4298D208EB48034F
:10526000194A02EB83039D5D0024EBE7042621E04D
:10527000124B1888FFF708FF6D00EDB20134E4B25D
:10528000B44205D215F0800FF2D10D4B1888F1E72A
:1052900009F101095FFA89F9B945BFF478AF08EB64
:1052A00048030A4A02EB031313F8095019F0010FDF
:1052B000DCD108260024E3E71C2903081C07002092
:1052C0000E000020DC400308A82403080C2F03086C
:1052D0002DE9F0478246894690461D469DF820609C
:1052E00000273C4615E0700800FB04A0334620224E
:1052F000494680B2FFF73CFF09E07008303200FBFE
:1053000004A03346D2B2494680B2FFF731FF0134E0
:10531000E4B2AC421CD2291BC9B20139C9B20A207D
:10532000FFF708FEB8FBF0F00A4AA2FB003C4FEA88
:10533000DC0C0CEB8C0CA0EB4C0C5FFA8CF2002F0D
:10534000DBD16B1E9C42D8DA002ACCD00127D4E7EF
:10535000BDE8F087CDCCCCCC2DE9F84F824689460C
:1053600090461D469DF828609DF82CB000273C46CD
:1053700022E0BBF1000F09D0700800FB04A0334607
:105380003022494680B2FFF7F3FE13E0700800FBBD
:1053900004A033462022494680B2FFF7E9FE09E027
:1053A0007008303200FB04A03346D2B2494680B2C6
:1053B000FFF7DEFE0134E4B2AC421AD2291BC9B2B7
:1053C0000139C9B20A20FFF7B5FDB8FBF0F00A4A6F
:1053D000A2FB0032D20802EB8202A0EB4202D2B260
:1053E000002FDDD16B1E9C42DADA002AC1D00127E2
:1053F000D6E7BDE8F88F00BFCDCCCCCC2DE9F04787
:1054000082460D469DF82070099E02441FFA82F9DB
:105410000B441FFA83F804460AE0454515D23B4683
:1054200029462046FFF7A4FE04EB5704A4B2013638
:105430003278A2F12003DBB25E2B06D84C45ECD3C8
:105440005FFA8AF43D44ADB2E7E7BDE8F0870000BB
:1054500008B5FFF7C9FD7820FCF79CFD1120FFF788
:10546000AFFD7820FCF796FD3620FFF7A9FD002060
:10547000FFF792FD3A20FFF7A3FD6520FFF78CFDB3
:10548000B220FFF79DFD0C20FFF786FD0C20FFF7F3
:1054900083FD0020FFF780FD3320FFF77DFD3320E3
:1054A000FFF77AFDB720FFF78BFD7220FFF774FD41
:1054B000BB20FFF785FD3D20FFF76EFDC020FFF705
:1054C0007FFD2C20FFF768FDC220FFF779FD01204A
:1054D000FFF762FDC320FFF773FD1920FFF75CFDA6
:1054E000C420FFF76DFD2020FFF756FDC620FFF713
:1054F00067FD0F20FFF750FDD020FFF761FDA420CE
:10550000FFF74AFDA120FFF747FDE020FFF758FD18
:10551000D020FFF741FD0420FFF73EFD0D20FFF7EF
:105520003BFD1120FFF738FD1320FFF735FD2B2041
:10553000FFF732FD3F20FFF72FFD5420FFF72CFD32
:105540004C20FFF729FD1820FFF726FD0D20FFF75F
:1055500023FD0B20FFF720FD1F20FFF71DFD23205B
:10556000FFF71AFDE120FFF72BFDD020FFF714FD18
:105570000420FFF711FD0C20FFF70EFD1120FFF7AF
:105580000BFD1320FFF708FD2C20FFF705FD3F2042
:10559000FFF702FD4420FFF7FFFC5120FFF7FCFC62
:1055A0002F20FFF7F9FC1F20FFF7F6FC1F20FFF765
:1055B000F3FC2020FFF7F0FC2320FFF7EDFC212077
:1055C000FFF7FEFC2920FFF7FBFCEF231A46002122
:1055D0000846FFF771FD4FF6FF70FFF795FD0122BA
:1055E00080210248FDF7C3FC08BD00BF000400484D
:1055F0002DE9F84381460F4616469846089D013B23
:10560000013A9BB292B2FFF757FD09E035F8020B61
:10561000FFF73AFD0134A4B2B442F7D30137BFB269
:10562000474501D24C46F7E7BDE8F88310B5104C6A
:10563000104B23604FF4827363600023A3604FF428
:10564000E062E26002222261012262614FF4007294
:10565000A261E36123626362A3620723E3622046DF
:10566000FEF725FE2268136843F04003136010BD67
:10567000A00B0020003C004000B589B0114BDA6C53
:1056800042F00202DA64DA6C02F002020192019A3C
:105690009A6D42F400429A659B6D03F400430293B5
:1056A000029B2823039302230493012305930323DE
:1056B00006930623079303A90348FDF74BFB09B0A4
:1056C0005DF804FB001002400004004808B50A46DB
:1056D0004FF47A7301460248FEF758FE08BD00BF3A
:1056E000A00B002008B54FF4FA70FFF7F9FB08BDD6
:1056F0002DE9F04188B01B4BDA6C42F00402DA6409
:10570000DA6C02F004020192019ADA6C42F00802AB
:10571000DA64DB6C03F008030293029B0225039515
:105720000124049405940695DFF83C8003A94046C3
:10573000FDF710FB402703970494059406950B4E44
:1057400003A93046FDF706FB224629464046FDF7F1
:105750000EFC224639463046FDF709FC08B0BDE88C
:10576000F08100BF0010024000080048000C004813
:1057700038B5114C236823F00C032360236843F0F1
:1057800004032360012202212046FDF7F0FB0B4DAC
:10579000012240212846FDF7EAFBFFF7A3FF002284
:1057A00002212046FDF7E3FBFFF79CFF002240218A
:1057B0002846FDF7DCFB38BD00080048000C004817
:1057C00038B5114C236823F00C032360236843F0A1
:1057D00004032360002202212046FDF7C8FB0B4D85
:1057E000012240212846FDF7C2FBFFF77BFF012283
:1057F00002212046FDF7BBFBFFF774FF002240218A
:105800002846FDF7B4FB38BD00080048000C0048EE
:1058100038B51548036823F00C0303600368036080
:1058200001220221FDF7A3FBFFF75CFF01224021CB
:105830000E48FDF79CFBFFF755FF002402210A48A4
:10584000FDF78EFB054640B10134A4B2B4F57A7F72
:10585000F4D9FFF7B5FF012504E0002240210348F9
:10586000FDF785FB284638BD00080048000C0048BD
:1058700010B5114C002240212046FDF778FB0F485F
:10588000036823F00C030360036843F00403036020
:1058900000220221FDF76BFBFFF724FF01224021CC
:1058A0002046FDF764FBFFF71DFF00224021204644
:1058B000FDF75DFB10BD00BF000C0048000800486C
:1058C00010B5114C002240212046FDF750FB0F4837
:1058D000036823F00C030360036843F004030360D0
:1058E00001220221FDF743FBFFF7FCFE01224021CC
:1058F0002046FDF73CFBFFF7F5FE00224021204645
:10590000FDF735FB10BD00BF000C00480008004843
:1059100070B50446194B1A6822F00C021A601A6816
:1059200042F004021A60002240211548FDF71FFBD7
:10593000002517E0002202211048FDF718FB640043
:10594000E4B20F4E012240213046FDF710FBFFF775
:10595000C9FE002240213046FDF709FBFFF7C2FED9
:105960000135EDB2072D08D814F0800FE2D00122E6
:1059700002210248FDF7FBFAE1E770BD000800488C
:10598000000C0048F8B50746174B1A6822F00C02C5
:105990001A601A681A600024254603E0FFF7A2FE89
:1059A0000135EDB2072D17D8104E002240213046A8
:1059B000FDF7DDFAFFF796FE012240213046FDF7A4
:1059C000D6FA6400E4B202210748FDF7C9FA0028BC
:1059D000E4D00134E4B2E1E71FB9FFF771FF2046DC
:1059E000F8BDFFF745FFFAE700080048000C004843
:1059F00010B5074C074B236061600023A360E06093
:105A000023612046FEF76CFF2046FEF7EDFD10BD3A
:105A1000040C00200004004002680E4B9A4200D0A3
:105A2000704700B583B003F503339A6D42F002026C
:105A30009A659B6D03F002030193019B03220121F0
:105A40001D20FDF737F81D20FDF76CF803B05DF859
:105A500004FB00BF0004004008B50248FEF70EFE3C
:105A600008BD00BF040C002008B5044B834200D0E1
:105A700008BD012013F036FAFAE700BF040C00203D
:105A800010B582B00446B1F90000B1F902E0B1F8F6
:105A900004C0CB8801330CF1010C00929BB21FFAB9
:105AA0008CF21FFA8EF180B2FFF7A2FD204600F0C3
:105AB000CFF802B010BD08B5FFF7CAFC08BD000062
:105AC00010B582B0FFF7F7FFF021084600F0F0F8BC
:105AD0000446064900F0B1F8002200924FF49653B4
:105AE0000349204600F095F802B010BD815A000825
:105AF000500C002008B50120FFF76EF908BD00002A
:105B000010B50C46FFF7F6FFA0B103460122A273C1
